{
	"projeto_final/supply_chain.sol": {
		"SupplyChain": {
			"abi": [
				{
					"anonymous": false,
					"inputs": [
						{
							"indexed": false,
							"internalType": "uint256",
							"name": "beforeIncrement",
							"type": "uint256"
						},
						{
							"indexed": false,
							"internalType": "uint256",
							"name": "afterIncrement",
							"type": "uint256"
						}
					],
					"name": "DebugProductCount",
					"type": "event"
				},
				{
					"anonymous": false,
					"inputs": [
						{
							"indexed": false,
							"internalType": "uint256",
							"name": "id",
							"type": "uint256"
						},
						{
							"indexed": false,
							"internalType": "address",
							"name": "previousOwner",
							"type": "address"
						},
						{
							"indexed": false,
							"internalType": "address",
							"name": "newOwner",
							"type": "address"
						}
					],
					"name": "OwnershipTransferred",
					"type": "event"
				},
				{
					"anonymous": false,
					"inputs": [
						{
							"indexed": false,
							"internalType": "uint256",
							"name": "id",
							"type": "uint256"
						},
						{
							"indexed": false,
							"internalType": "string",
							"name": "name",
							"type": "string"
						},
						{
							"indexed": false,
							"internalType": "address",
							"name": "owner",
							"type": "address"
						},
						{
							"indexed": false,
							"internalType": "enum SupplyChain.State",
							"name": "state",
							"type": "uint8"
						}
					],
					"name": "ProductCreated",
					"type": "event"
				},
				{
					"anonymous": false,
					"inputs": [
						{
							"indexed": false,
							"internalType": "uint256",
							"name": "id",
							"type": "uint256"
						},
						{
							"indexed": false,
							"internalType": "enum SupplyChain.State",
							"name": "state",
							"type": "uint8"
						}
					],
					"name": "StateUpdated",
					"type": "event"
				},
				{
					"inputs": [
						{
							"internalType": "string",
							"name": "_name",
							"type": "string"
						}
					],
					"name": "createProduct",
					"outputs": [],
					"stateMutability": "nonpayable",
					"type": "function"
				},
				{
					"inputs": [
						{
							"internalType": "uint256",
							"name": "_id",
							"type": "uint256"
						}
					],
					"name": "getProduct",
					"outputs": [
						{
							"internalType": "uint256",
							"name": "",
							"type": "uint256"
						},
						{
							"internalType": "string",
							"name": "",
							"type": "string"
						},
						{
							"internalType": "address",
							"name": "",
							"type": "address"
						},
						{
							"internalType": "string",
							"name": "",
							"type": "string"
						}
					],
					"stateMutability": "view",
					"type": "function"
				},
				{
					"inputs": [],
					"name": "productCount",
					"outputs": [
						{
							"internalType": "uint256",
							"name": "",
							"type": "uint256"
						}
					],
					"stateMutability": "view",
					"type": "function"
				},
				{
					"inputs": [
						{
							"internalType": "uint256",
							"name": "",
							"type": "uint256"
						}
					],
					"name": "products",
					"outputs": [
						{
							"internalType": "uint256",
							"name": "id",
							"type": "uint256"
						},
						{
							"internalType": "string",
							"name": "name",
							"type": "string"
						},
						{
							"internalType": "address",
							"name": "owner",
							"type": "address"
						},
						{
							"internalType": "enum SupplyChain.State",
							"name": "state",
							"type": "uint8"
						}
					],
					"stateMutability": "view",
					"type": "function"
				},
				{
					"inputs": [
						{
							"internalType": "uint256",
							"name": "_id",
							"type": "uint256"
						},
						{
							"internalType": "address",
							"name": "_newOwner",
							"type": "address"
						}
					],
					"name": "transferOwnership",
					"outputs": [],
					"stateMutability": "nonpayable",
					"type": "function"
				},
				{
					"inputs": [
						{
							"internalType": "uint256",
							"name": "_id",
							"type": "uint256"
						},
						{
							"internalType": "enum SupplyChain.State",
							"name": "_state",
							"type": "uint8"
						}
					],
					"name": "updateState",
					"outputs": [],
					"stateMutability": "nonpayable",
					"type": "function"
				}
			],
			"devdoc": {
				"kind": "dev",
				"methods": {},
				"version": 1
			},
			"evm": {
				"assembly": "    /* \"projeto_final/supply_chain.sol\":60:2138  contract SupplyChain {\r... */\n  mstore(0x40, 0x80)\n    /* \"projeto_final/supply_chain.sol\":284:285  0 */\n  0x00\n    /* \"projeto_final/supply_chain.sol\":257:285  uint public productCount = 0 */\n  dup1\n  sstore\n    /* \"projeto_final/supply_chain.sol\":60:2138  contract SupplyChain {\r... */\n  callvalue\n  dup1\n  iszero\n  tag_1\n  jumpi\n  0x00\n  dup1\n  revert\ntag_1:\n  pop\n  dataSize(sub_0)\n  dup1\n  dataOffset(sub_0)\n  0x00\n  codecopy\n  0x00\n  return\nstop\n\nsub_0: assembly {\n        /* \"projeto_final/supply_chain.sol\":60:2138  contract SupplyChain {\r... */\n      mstore(0x40, 0x80)\n      callvalue\n      dup1\n      iszero\n      tag_1\n      jumpi\n      0x00\n      dup1\n      revert\n    tag_1:\n      pop\n      jumpi(tag_2, lt(calldatasize, 0x04))\n      shr(0xe0, calldataload(0x00))\n      dup1\n      0x02ec06be\n      eq\n      tag_3\n      jumpi\n      dup1\n      0x29507f73\n      eq\n      tag_4\n      jumpi\n      dup1\n      0x7acc0b20\n      eq\n      tag_5\n      jumpi\n      dup1\n      0xb9db15b4\n      eq\n      tag_6\n      jumpi\n      dup1\n      0xe0f6ef87\n      eq\n      tag_7\n      jumpi\n      dup1\n      0xffbafdfe\n      eq\n      tag_8\n      jumpi\n    tag_2:\n      0x00\n      dup1\n      revert\n        /* \"projeto_final/supply_chain.sol\":623:876  function createProduct(string memory _name) public {\r... */\n    tag_3:\n      tag_9\n      0x04\n      dup1\n      calldatasize\n      sub\n      dup2\n      add\n      swap1\n      tag_10\n      swap2\n      swap1\n      tag_11\n      jump\t// in\n    tag_10:\n      tag_12\n      jump\t// in\n    tag_9:\n      stop\n        /* \"projeto_final/supply_chain.sol\":1145:1488  function transferOwnership(uint _id, address _newOwner) public {\r... */\n    tag_4:\n      tag_13\n      0x04\n      dup1\n      calldatasize\n      sub\n      dup2\n      add\n      swap1\n      tag_14\n      swap2\n      swap1\n      tag_15\n      jump\t// in\n    tag_14:\n      tag_16\n      jump\t// in\n    tag_13:\n      stop\n        /* \"projeto_final/supply_chain.sol\":292:332  mapping(uint => Product) public products */\n    tag_5:\n      tag_17\n      0x04\n      dup1\n      calldatasize\n      sub\n      dup2\n      add\n      swap1\n      tag_18\n      swap2\n      swap1\n      tag_19\n      jump\t// in\n    tag_18:\n      tag_20\n      jump\t// in\n    tag_17:\n      mload(0x40)\n      tag_21\n      swap5\n      swap4\n      swap3\n      swap2\n      swap1\n      tag_22\n      jump\t// in\n    tag_21:\n      mload(0x40)\n      dup1\n      swap2\n      sub\n      swap1\n      return\n        /* \"projeto_final/supply_chain.sol\":1843:2135  function getProduct(uint _id) public view returns (uint, string memory, address, string memory) {\r... */\n    tag_6:\n      tag_23\n      0x04\n      dup1\n      calldatasize\n      sub\n      dup2\n      add\n      swap1\n      tag_24\n      swap2\n      swap1\n      tag_19\n      jump\t// in\n    tag_24:\n      tag_25\n      jump\t// in\n    tag_23:\n      mload(0x40)\n      tag_26\n      swap5\n      swap4\n      swap3\n      swap2\n      swap1\n      tag_27\n      jump\t// in\n    tag_26:\n      mload(0x40)\n      dup1\n      swap2\n      sub\n      swap1\n      return\n        /* \"projeto_final/supply_chain.sol\":257:285  uint public productCount = 0 */\n    tag_7:\n      tag_28\n      tag_29\n      jump\t// in\n    tag_28:\n      mload(0x40)\n      tag_30\n      swap2\n      swap1\n      tag_31\n      jump\t// in\n    tag_30:\n      mload(0x40)\n      dup1\n      swap2\n      sub\n      swap1\n      return\n        /* \"projeto_final/supply_chain.sol\":894:1137  function updateState(uint _id, State _state) public {\r... */\n    tag_8:\n      tag_32\n      0x04\n      dup1\n      calldatasize\n      sub\n      dup2\n      add\n      swap1\n      tag_33\n      swap2\n      swap1\n      tag_34\n      jump\t// in\n    tag_33:\n      tag_35\n      jump\t// in\n    tag_32:\n      stop\n        /* \"projeto_final/supply_chain.sol\":623:876  function createProduct(string memory _name) public {\r... */\n    tag_12:\n        /* \"projeto_final/supply_chain.sol\":685:697  productCount */\n      0x00\n      dup1\n        /* \"projeto_final/supply_chain.sol\":685:699  productCount++ */\n      dup2\n      sload\n      dup1\n      swap3\n      swap2\n      swap1\n      tag_37\n      swap1\n      tag_38\n      jump\t// in\n    tag_37:\n      swap2\n      swap1\n      pop\n      sstore\n      pop\n        /* \"projeto_final/supply_chain.sol\":735:790  Product(productCount, _name, msg.sender, State.Created) */\n      mload(0x40)\n      dup1\n      0x80\n      add\n      0x40\n      mstore\n      dup1\n        /* \"projeto_final/supply_chain.sol\":743:755  productCount */\n      sload(0x00)\n        /* \"projeto_final/supply_chain.sol\":735:790  Product(productCount, _name, msg.sender, State.Created) */\n      dup2\n      mstore\n      0x20\n      add\n        /* \"projeto_final/supply_chain.sol\":757:762  _name */\n      dup3\n        /* \"projeto_final/supply_chain.sol\":735:790  Product(productCount, _name, msg.sender, State.Created) */\n      dup2\n      mstore\n      0x20\n      add\n        /* \"projeto_final/supply_chain.sol\":764:774  msg.sender */\n      caller\n        /* \"projeto_final/supply_chain.sol\":735:790  Product(productCount, _name, msg.sender, State.Created) */\n      0xffffffffffffffffffffffffffffffffffffffff\n      and\n      dup2\n      mstore\n      0x20\n      add\n        /* \"projeto_final/supply_chain.sol\":776:789  State.Created */\n      0x00\n        /* \"projeto_final/supply_chain.sol\":735:790  Product(productCount, _name, msg.sender, State.Created) */\n      0x02\n      dup2\n      gt\n      iszero\n      tag_39\n      jumpi\n      mstore(0x00, 0x4e487b7100000000000000000000000000000000000000000000000000000000)\n      mstore(0x04, 0x21)\n      revert(0x00, 0x24)\n    tag_39:\n      dup2\n      mstore\n      pop\n        /* \"projeto_final/supply_chain.sol\":710:718  products */\n      0x01\n        /* \"projeto_final/supply_chain.sol\":710:732  products[productCount] */\n      0x00\n        /* \"projeto_final/supply_chain.sol\":719:731  productCount */\n      dup1\n      sload\n        /* \"projeto_final/supply_chain.sol\":710:732  products[productCount] */\n      dup2\n      mstore\n      0x20\n      add\n      swap1\n      dup2\n      mstore\n      0x20\n      add\n      0x00\n      keccak256\n        /* \"projeto_final/supply_chain.sol\":710:790  products[productCount] = Product(productCount, _name, msg.sender, State.Created) */\n      0x00\n      dup3\n      add\n      mload\n      dup2\n      0x00\n      add\n      sstore\n      0x20\n      dup3\n      add\n      mload\n      dup2\n      0x01\n      add\n      swap1\n      dup1\n      mload\n      swap1\n      0x20\n      add\n      swap1\n      tag_40\n      swap3\n      swap2\n      swap1\n      tag_41\n      jump\t// in\n    tag_40:\n      pop\n      0x40\n      dup3\n      add\n      mload\n      dup2\n      0x02\n      add\n      exp(0x0100, 0x00)\n      dup2\n      sload\n      dup2\n      0xffffffffffffffffffffffffffffffffffffffff\n      mul\n      not\n      and\n      swap1\n      dup4\n      0xffffffffffffffffffffffffffffffffffffffff\n      and\n      mul\n      or\n      swap1\n      sstore\n      pop\n      0x60\n      dup3\n      add\n      mload\n      dup2\n      0x02\n      add\n      exp(0x0100, 0x14)\n      dup2\n      sload\n      dup2\n      0xff\n      mul\n      not\n      and\n      swap1\n      dup4\n      0x02\n      dup2\n      gt\n      iszero\n      tag_42\n      jumpi\n      mstore(0x00, 0x4e487b7100000000000000000000000000000000000000000000000000000000)\n      mstore(0x04, 0x21)\n      revert(0x00, 0x24)\n    tag_42:\n      mul\n      or\n      swap1\n      sstore\n      pop\n      swap1\n      pop\n      pop\n        /* \"projeto_final/supply_chain.sol\":806:868  ProductCreated(productCount, _name, msg.sender, State.Created) */\n      0x60829b580f3894476b1b030a2090507680999ff981165f87121a469a8d563cdf\n        /* \"projeto_final/supply_chain.sol\":821:833  productCount */\n      sload(0x00)\n        /* \"projeto_final/supply_chain.sol\":835:840  _name */\n      dup3\n        /* \"projeto_final/supply_chain.sol\":842:852  msg.sender */\n      caller\n        /* \"projeto_final/supply_chain.sol\":854:867  State.Created */\n      0x00\n        /* \"projeto_final/supply_chain.sol\":806:868  ProductCreated(productCount, _name, msg.sender, State.Created) */\n      mload(0x40)\n      tag_43\n      swap5\n      swap4\n      swap3\n      swap2\n      swap1\n      tag_22\n      jump\t// in\n    tag_43:\n      mload(0x40)\n      dup1\n      swap2\n      sub\n      swap1\n      log1\n        /* \"projeto_final/supply_chain.sol\":623:876  function createProduct(string memory _name) public {\r... */\n      pop\n      jump\t// out\n        /* \"projeto_final/supply_chain.sol\":1145:1488  function transferOwnership(uint _id, address _newOwner) public {\r... */\n    tag_16:\n        /* \"projeto_final/supply_chain.sol\":1250:1260  msg.sender */\n      caller\n        /* \"projeto_final/supply_chain.sol\":1227:1260  products[_id].owner == msg.sender */\n      0xffffffffffffffffffffffffffffffffffffffff\n      and\n        /* \"projeto_final/supply_chain.sol\":1227:1235  products */\n      0x01\n        /* \"projeto_final/supply_chain.sol\":1227:1240  products[_id] */\n      0x00\n        /* \"projeto_final/supply_chain.sol\":1236:1239  _id */\n      dup5\n        /* \"projeto_final/supply_chain.sol\":1227:1240  products[_id] */\n      dup2\n      mstore\n      0x20\n      add\n      swap1\n      dup2\n      mstore\n      0x20\n      add\n      0x00\n      keccak256\n        /* \"projeto_final/supply_chain.sol\":1227:1246  products[_id].owner */\n      0x02\n      add\n      0x00\n      swap1\n      sload\n      swap1\n      0x0100\n      exp\n      swap1\n      div\n      0xffffffffffffffffffffffffffffffffffffffff\n      and\n        /* \"projeto_final/supply_chain.sol\":1227:1260  products[_id].owner == msg.sender */\n      0xffffffffffffffffffffffffffffffffffffffff\n      and\n      eq\n        /* \"projeto_final/supply_chain.sol\":1219:1317  require(products[_id].owner == msg.sender, \"Apenas o proprietario pode transferir a propriedade.\") */\n      tag_45\n      jumpi\n      mload(0x40)\n      0x08c379a000000000000000000000000000000000000000000000000000000000\n      dup2\n      mstore\n      0x04\n      add\n      tag_46\n      swap1\n      tag_47\n      jump\t// in\n    tag_46:\n      mload(0x40)\n      dup1\n      swap2\n      sub\n      swap1\n      revert\n    tag_45:\n        /* \"projeto_final/supply_chain.sol\":1328:1349  address previousOwner */\n      0x00\n        /* \"projeto_final/supply_chain.sol\":1352:1360  products */\n      0x01\n        /* \"projeto_final/supply_chain.sol\":1352:1365  products[_id] */\n      0x00\n        /* \"projeto_final/supply_chain.sol\":1361:1364  _id */\n      dup5\n        /* \"projeto_final/supply_chain.sol\":1352:1365  products[_id] */\n      dup2\n      mstore\n      0x20\n      add\n      swap1\n      dup2\n      mstore\n      0x20\n      add\n      0x00\n      keccak256\n        /* \"projeto_final/supply_chain.sol\":1352:1371  products[_id].owner */\n      0x02\n      add\n      0x00\n      swap1\n      sload\n      swap1\n      0x0100\n      exp\n      swap1\n      div\n      0xffffffffffffffffffffffffffffffffffffffff\n      and\n        /* \"projeto_final/supply_chain.sol\":1328:1371  address previousOwner = products[_id].owner */\n      swap1\n      pop\n        /* \"projeto_final/supply_chain.sol\":1404:1413  _newOwner */\n      dup2\n        /* \"projeto_final/supply_chain.sol\":1382:1390  products */\n      0x01\n        /* \"projeto_final/supply_chain.sol\":1382:1395  products[_id] */\n      0x00\n        /* \"projeto_final/supply_chain.sol\":1391:1394  _id */\n      dup6\n        /* \"projeto_final/supply_chain.sol\":1382:1395  products[_id] */\n      dup2\n      mstore\n      0x20\n      add\n      swap1\n      dup2\n      mstore\n      0x20\n      add\n      0x00\n      keccak256\n        /* \"projeto_final/supply_chain.sol\":1382:1401  products[_id].owner */\n      0x02\n      add\n      0x00\n        /* \"projeto_final/supply_chain.sol\":1382:1413  products[_id].owner = _newOwner */\n      0x0100\n      exp\n      dup2\n      sload\n      dup2\n      0xffffffffffffffffffffffffffffffffffffffff\n      mul\n      not\n      and\n      swap1\n      dup4\n      0xffffffffffffffffffffffffffffffffffffffff\n      and\n      mul\n      or\n      swap1\n      sstore\n      pop\n        /* \"projeto_final/supply_chain.sol\":1429:1480  OwnershipTransferred(_id, previousOwner, _newOwner) */\n      0x16b85f49bf01212961345d3016c9a531894accf62eb7680f2045d79185cc0ec0\n        /* \"projeto_final/supply_chain.sol\":1450:1453  _id */\n      dup4\n        /* \"projeto_final/supply_chain.sol\":1455:1468  previousOwner */\n      dup3\n        /* \"projeto_final/supply_chain.sol\":1470:1479  _newOwner */\n      dup5\n        /* \"projeto_final/supply_chain.sol\":1429:1480  OwnershipTransferred(_id, previousOwner, _newOwner) */\n      mload(0x40)\n      tag_48\n      swap4\n      swap3\n      swap2\n      swap1\n      tag_49\n      jump\t// in\n    tag_48:\n      mload(0x40)\n      dup1\n      swap2\n      sub\n      swap1\n      log1\n        /* \"projeto_final/supply_chain.sol\":1145:1488  function transferOwnership(uint _id, address _newOwner) public {\r... */\n      pop\n      pop\n      pop\n      jump\t// out\n        /* \"projeto_final/supply_chain.sol\":292:332  mapping(uint => Product) public products */\n    tag_20:\n      mstore(0x20, 0x01)\n      dup1\n      0x00\n      mstore\n      keccak256(0x00, 0x40)\n      0x00\n      swap2\n      pop\n      swap1\n      pop\n      dup1\n      0x00\n      add\n      sload\n      swap1\n      dup1\n      0x01\n      add\n      dup1\n      sload\n      tag_50\n      swap1\n      tag_51\n      jump\t// in\n    tag_50:\n      dup1\n      0x1f\n      add\n      0x20\n      dup1\n      swap2\n      div\n      mul\n      0x20\n      add\n      mload(0x40)\n      swap1\n      dup2\n      add\n      0x40\n      mstore\n      dup1\n      swap3\n      swap2\n      swap1\n      dup2\n      dup2\n      mstore\n      0x20\n      add\n      dup3\n      dup1\n      sload\n      tag_52\n      swap1\n      tag_51\n      jump\t// in\n    tag_52:\n      dup1\n      iszero\n      tag_53\n      jumpi\n      dup1\n      0x1f\n      lt\n      tag_54\n      jumpi\n      0x0100\n      dup1\n      dup4\n      sload\n      div\n      mul\n      dup4\n      mstore\n      swap2\n      0x20\n      add\n      swap2\n      jump(tag_53)\n    tag_54:\n      dup3\n      add\n      swap2\n      swap1\n      0x00\n      mstore\n      keccak256(0x00, 0x20)\n      swap1\n    tag_55:\n      dup2\n      sload\n      dup2\n      mstore\n      swap1\n      0x01\n      add\n      swap1\n      0x20\n      add\n      dup1\n      dup4\n      gt\n      tag_55\n      jumpi\n      dup3\n      swap1\n      sub\n      0x1f\n      and\n      dup3\n      add\n      swap2\n    tag_53:\n      pop\n      pop\n      pop\n      pop\n      pop\n      swap1\n      dup1\n      0x02\n      add\n      0x00\n      swap1\n      sload\n      swap1\n      0x0100\n      exp\n      swap1\n      div\n      0xffffffffffffffffffffffffffffffffffffffff\n      and\n      swap1\n      dup1\n      0x02\n      add\n      0x14\n      swap1\n      sload\n      swap1\n      0x0100\n      exp\n      swap1\n      div\n      0xff\n      and\n      swap1\n      pop\n      dup5\n      jump\t// out\n        /* \"projeto_final/supply_chain.sol\":1843:2135  function getProduct(uint _id) public view returns (uint, string memory, address, string memory) {\r... */\n    tag_25:\n        /* \"projeto_final/supply_chain.sol\":1894:1898  uint */\n      0x00\n        /* \"projeto_final/supply_chain.sol\":1900:1913  string memory */\n      0x60\n        /* \"projeto_final/supply_chain.sol\":1915:1922  address */\n      0x00\n        /* \"projeto_final/supply_chain.sol\":1924:1937  string memory */\n      0x60\n        /* \"projeto_final/supply_chain.sol\":1950:1972  Product memory product */\n      0x00\n        /* \"projeto_final/supply_chain.sol\":1975:1983  products */\n      0x01\n        /* \"projeto_final/supply_chain.sol\":1975:1988  products[_id] */\n      0x00\n        /* \"projeto_final/supply_chain.sol\":1984:1987  _id */\n      dup8\n        /* \"projeto_final/supply_chain.sol\":1975:1988  products[_id] */\n      dup2\n      mstore\n      0x20\n      add\n      swap1\n      dup2\n      mstore\n      0x20\n      add\n      0x00\n      keccak256\n        /* \"projeto_final/supply_chain.sol\":1950:1988  Product memory product = products[_id] */\n      mload(0x40)\n      dup1\n      0x80\n      add\n      0x40\n      mstore\n      swap1\n      dup2\n      0x00\n      dup3\n      add\n      sload\n      dup2\n      mstore\n      0x20\n      add\n      0x01\n      dup3\n      add\n      dup1\n      sload\n      tag_57\n      swap1\n      tag_51\n      jump\t// in\n    tag_57:\n      dup1\n      0x1f\n      add\n      0x20\n      dup1\n      swap2\n      div\n      mul\n      0x20\n      add\n      mload(0x40)\n      swap1\n      dup2\n      add\n      0x40\n      mstore\n      dup1\n      swap3\n      swap2\n      swap1\n      dup2\n      dup2\n      mstore\n      0x20\n      add\n      dup3\n      dup1\n      sload\n      tag_58\n      swap1\n      tag_51\n      jump\t// in\n    tag_58:\n      dup1\n      iszero\n      tag_59\n      jumpi\n      dup1\n      0x1f\n      lt\n      tag_60\n      jumpi\n      0x0100\n      dup1\n      dup4\n      sload\n      div\n      mul\n      dup4\n      mstore\n      swap2\n      0x20\n      add\n      swap2\n      jump(tag_59)\n    tag_60:\n      dup3\n      add\n      swap2\n      swap1\n      0x00\n      mstore\n      keccak256(0x00, 0x20)\n      swap1\n    tag_61:\n      dup2\n      sload\n      dup2\n      mstore\n      swap1\n      0x01\n      add\n      swap1\n      0x20\n      add\n      dup1\n      dup4\n      gt\n      tag_61\n      jumpi\n      dup3\n      swap1\n      sub\n      0x1f\n      and\n      dup3\n      add\n      swap2\n    tag_59:\n      pop\n      pop\n      pop\n      pop\n      pop\n      dup2\n      mstore\n      0x20\n      add\n      0x02\n      dup3\n      add\n      0x00\n      swap1\n      sload\n      swap1\n      0x0100\n      exp\n      swap1\n      div\n      0xffffffffffffffffffffffffffffffffffffffff\n      and\n      0xffffffffffffffffffffffffffffffffffffffff\n      and\n      0xffffffffffffffffffffffffffffffffffffffff\n      and\n      dup2\n      mstore\n      0x20\n      add\n      0x02\n      dup3\n      add\n      0x14\n      swap1\n      sload\n      swap1\n      0x0100\n      exp\n      swap1\n      div\n      0xff\n      and\n      0x02\n      dup2\n      gt\n      iszero\n      tag_62\n      jumpi\n      mstore(0x00, 0x4e487b7100000000000000000000000000000000000000000000000000000000)\n      mstore(0x04, 0x21)\n      revert(0x00, 0x24)\n    tag_62:\n      0x02\n      dup2\n      gt\n      iszero\n      tag_63\n      jumpi\n      mstore(0x00, 0x4e487b7100000000000000000000000000000000000000000000000000000000)\n      mstore(0x04, 0x21)\n      revert(0x00, 0x24)\n    tag_63:\n      dup2\n      mstore\n      pop\n      pop\n      swap1\n      pop\n        /* \"projeto_final/supply_chain.sol\":1999:2024  string memory stateString */\n      0x00\n        /* \"projeto_final/supply_chain.sol\":2027:2055  stateToString(product.state) */\n      tag_64\n        /* \"projeto_final/supply_chain.sol\":2041:2048  product */\n      dup3\n        /* \"projeto_final/supply_chain.sol\":2041:2054  product.state */\n      0x60\n      add\n      mload\n        /* \"projeto_final/supply_chain.sol\":2027:2040  stateToString */\n      tag_65\n        /* \"projeto_final/supply_chain.sol\":2027:2055  stateToString(product.state) */\n      jump\t// in\n    tag_64:\n        /* \"projeto_final/supply_chain.sol\":1999:2055  string memory stateString = stateToString(product.state) */\n      swap1\n      pop\n        /* \"projeto_final/supply_chain.sol\":2074:2081  product */\n      dup2\n        /* \"projeto_final/supply_chain.sol\":2074:2084  product.id */\n      0x00\n      add\n      mload\n        /* \"projeto_final/supply_chain.sol\":2086:2093  product */\n      dup3\n        /* \"projeto_final/supply_chain.sol\":2086:2098  product.name */\n      0x20\n      add\n      mload\n        /* \"projeto_final/supply_chain.sol\":2100:2107  product */\n      dup4\n        /* \"projeto_final/supply_chain.sol\":2100:2113  product.owner */\n      0x40\n      add\n      mload\n        /* \"projeto_final/supply_chain.sol\":2115:2126  stateString */\n      dup4\n        /* \"projeto_final/supply_chain.sol\":2066:2127  return (product.id, product.name, product.owner, stateString) */\n      swap6\n      pop\n      swap6\n      pop\n      swap6\n      pop\n      swap6\n      pop\n      pop\n      pop\n        /* \"projeto_final/supply_chain.sol\":1843:2135  function getProduct(uint _id) public view returns (uint, string memory, address, string memory) {\r... */\n      swap2\n      swap4\n      pop\n      swap2\n      swap4\n      jump\t// out\n        /* \"projeto_final/supply_chain.sol\":257:285  uint public productCount = 0 */\n    tag_29:\n      sload(0x00)\n      dup2\n      jump\t// out\n        /* \"projeto_final/supply_chain.sol\":894:1137  function updateState(uint _id, State _state) public {\r... */\n    tag_35:\n        /* \"projeto_final/supply_chain.sol\":988:998  msg.sender */\n      caller\n        /* \"projeto_final/supply_chain.sol\":965:998  products[_id].owner == msg.sender */\n      0xffffffffffffffffffffffffffffffffffffffff\n      and\n        /* \"projeto_final/supply_chain.sol\":965:973  products */\n      0x01\n        /* \"projeto_final/supply_chain.sol\":965:978  products[_id] */\n      0x00\n        /* \"projeto_final/supply_chain.sol\":974:977  _id */\n      dup5\n        /* \"projeto_final/supply_chain.sol\":965:978  products[_id] */\n      dup2\n      mstore\n      0x20\n      add\n      swap1\n      dup2\n      mstore\n      0x20\n      add\n      0x00\n      keccak256\n        /* \"projeto_final/supply_chain.sol\":965:984  products[_id].owner */\n      0x02\n      add\n      0x00\n      swap1\n      sload\n      swap1\n      0x0100\n      exp\n      swap1\n      div\n      0xffffffffffffffffffffffffffffffffffffffff\n      and\n        /* \"projeto_final/supply_chain.sol\":965:998  products[_id].owner == msg.sender */\n      0xffffffffffffffffffffffffffffffffffffffff\n      and\n      eq\n        /* \"projeto_final/supply_chain.sol\":957:1049  require(products[_id].owner == msg.sender, \"Apenas o proprietario pode atualizar o estado.\") */\n      tag_67\n      jumpi\n      mload(0x40)\n      0x08c379a000000000000000000000000000000000000000000000000000000000\n      dup2\n      mstore\n      0x04\n      add\n      tag_68\n      swap1\n      tag_69\n      jump\t// in\n    tag_68:\n      mload(0x40)\n      dup1\n      swap2\n      sub\n      swap1\n      revert\n    tag_67:\n        /* \"projeto_final/supply_chain.sol\":1082:1088  _state */\n      dup1\n        /* \"projeto_final/supply_chain.sol\":1060:1068  products */\n      0x01\n        /* \"projeto_final/supply_chain.sol\":1060:1073  products[_id] */\n      0x00\n        /* \"projeto_final/supply_chain.sol\":1069:1072  _id */\n      dup5\n        /* \"projeto_final/supply_chain.sol\":1060:1073  products[_id] */\n      dup2\n      mstore\n      0x20\n      add\n      swap1\n      dup2\n      mstore\n      0x20\n      add\n      0x00\n      keccak256\n        /* \"projeto_final/supply_chain.sol\":1060:1079  products[_id].state */\n      0x02\n      add\n      0x14\n        /* \"projeto_final/supply_chain.sol\":1060:1088  products[_id].state = _state */\n      0x0100\n      exp\n      dup2\n      sload\n      dup2\n      0xff\n      mul\n      not\n      and\n      swap1\n      dup4\n      0x02\n      dup2\n      gt\n      iszero\n      tag_70\n      jumpi\n      mstore(0x00, 0x4e487b7100000000000000000000000000000000000000000000000000000000)\n      mstore(0x04, 0x21)\n      revert(0x00, 0x24)\n    tag_70:\n      mul\n      or\n      swap1\n      sstore\n      pop\n        /* \"projeto_final/supply_chain.sol\":1104:1129  StateUpdated(_id, _state) */\n      0x5f37cb0e663bb52ce92e7edf0e34cd00146463aea0dabf3dd721dbd522ec9858\n        /* \"projeto_final/supply_chain.sol\":1117:1120  _id */\n      dup3\n        /* \"projeto_final/supply_chain.sol\":1122:1128  _state */\n      dup3\n        /* \"projeto_final/supply_chain.sol\":1104:1129  StateUpdated(_id, _state) */\n      mload(0x40)\n      tag_71\n      swap3\n      swap2\n      swap1\n      tag_72\n      jump\t// in\n    tag_71:\n      mload(0x40)\n      dup1\n      swap2\n      sub\n      swap1\n      log1\n        /* \"projeto_final/supply_chain.sol\":894:1137  function updateState(uint _id, State _state) public {\r... */\n      pop\n      pop\n      jump\t// out\n        /* \"projeto_final/supply_chain.sol\":1496:1782  function stateToString(State _state) internal pure returns (string memory) {\r... */\n    tag_65:\n        /* \"projeto_final/supply_chain.sol\":1556:1569  string memory */\n      0x60\n        /* \"projeto_final/supply_chain.sol\":1596:1609  State.Created */\n      0x00\n        /* \"projeto_final/supply_chain.sol\":1586:1609  _state == State.Created */\n      0x02\n      dup2\n      gt\n      iszero\n      tag_74\n      jumpi\n      mstore(0x00, 0x4e487b7100000000000000000000000000000000000000000000000000000000)\n      mstore(0x04, 0x21)\n      revert(0x00, 0x24)\n    tag_74:\n        /* \"projeto_final/supply_chain.sol\":1586:1592  _state */\n      dup3\n        /* \"projeto_final/supply_chain.sol\":1586:1609  _state == State.Created */\n      0x02\n      dup2\n      gt\n      iszero\n      tag_75\n      jumpi\n      mstore(0x00, 0x4e487b7100000000000000000000000000000000000000000000000000000000)\n      mstore(0x04, 0x21)\n      revert(0x00, 0x24)\n    tag_75:\n      eq\n        /* \"projeto_final/supply_chain.sol\":1582:1627  if (_state == State.Created) return \"Created\" */\n      iszero\n      tag_76\n      jumpi\n        /* \"projeto_final/supply_chain.sol\":1611:1627  return \"Created\" */\n      mload(0x40)\n      dup1\n      0x40\n      add\n      0x40\n      mstore\n      dup1\n      0x07\n      dup2\n      mstore\n      0x20\n      add\n      0x4372656174656400000000000000000000000000000000000000000000000000\n      dup2\n      mstore\n      pop\n      swap1\n      pop\n      jump(tag_73)\n        /* \"projeto_final/supply_chain.sol\":1582:1627  if (_state == State.Created) return \"Created\" */\n    tag_76:\n        /* \"projeto_final/supply_chain.sol\":1652:1667  State.InTransit */\n      0x01\n        /* \"projeto_final/supply_chain.sol\":1642:1667  _state == State.InTransit */\n      0x02\n      dup2\n      gt\n      iszero\n      tag_77\n      jumpi\n      mstore(0x00, 0x4e487b7100000000000000000000000000000000000000000000000000000000)\n      mstore(0x04, 0x21)\n      revert(0x00, 0x24)\n    tag_77:\n        /* \"projeto_final/supply_chain.sol\":1642:1648  _state */\n      dup3\n        /* \"projeto_final/supply_chain.sol\":1642:1667  _state == State.InTransit */\n      0x02\n      dup2\n      gt\n      iszero\n      tag_78\n      jumpi\n      mstore(0x00, 0x4e487b7100000000000000000000000000000000000000000000000000000000)\n      mstore(0x04, 0x21)\n      revert(0x00, 0x24)\n    tag_78:\n      eq\n        /* \"projeto_final/supply_chain.sol\":1638:1687  if (_state == State.InTransit) return \"InTransit\" */\n      iszero\n      tag_79\n      jumpi\n        /* \"projeto_final/supply_chain.sol\":1669:1687  return \"InTransit\" */\n      mload(0x40)\n      dup1\n      0x40\n      add\n      0x40\n      mstore\n      dup1\n      0x09\n      dup2\n      mstore\n      0x20\n      add\n      0x496e5472616e7369740000000000000000000000000000000000000000000000\n      dup2\n      mstore\n      pop\n      swap1\n      pop\n      jump(tag_73)\n        /* \"projeto_final/supply_chain.sol\":1638:1687  if (_state == State.InTransit) return \"InTransit\" */\n    tag_79:\n        /* \"projeto_final/supply_chain.sol\":1712:1727  State.Delivered */\n      0x02\n        /* \"projeto_final/supply_chain.sol\":1702:1727  _state == State.Delivered */\n      dup1\n      dup2\n      gt\n      iszero\n      tag_80\n      jumpi\n      mstore(0x00, 0x4e487b7100000000000000000000000000000000000000000000000000000000)\n      mstore(0x04, 0x21)\n      revert(0x00, 0x24)\n    tag_80:\n        /* \"projeto_final/supply_chain.sol\":1702:1708  _state */\n      dup3\n        /* \"projeto_final/supply_chain.sol\":1702:1727  _state == State.Delivered */\n      0x02\n      dup2\n      gt\n      iszero\n      tag_81\n      jumpi\n      mstore(0x00, 0x4e487b7100000000000000000000000000000000000000000000000000000000)\n      mstore(0x04, 0x21)\n      revert(0x00, 0x24)\n    tag_81:\n      eq\n        /* \"projeto_final/supply_chain.sol\":1698:1747  if (_state == State.Delivered) return \"Delivered\" */\n      iszero\n      tag_82\n      jumpi\n        /* \"projeto_final/supply_chain.sol\":1729:1747  return \"Delivered\" */\n      mload(0x40)\n      dup1\n      0x40\n      add\n      0x40\n      mstore\n      dup1\n      0x09\n      dup2\n      mstore\n      0x20\n      add\n      0x44656c6976657265640000000000000000000000000000000000000000000000\n      dup2\n      mstore\n      pop\n      swap1\n      pop\n      jump(tag_73)\n        /* \"projeto_final/supply_chain.sol\":1698:1747  if (_state == State.Delivered) return \"Delivered\" */\n    tag_82:\n        /* \"projeto_final/supply_chain.sol\":1758:1774  return \"Unknown\" */\n      mload(0x40)\n      dup1\n      0x40\n      add\n      0x40\n      mstore\n      dup1\n      0x07\n      dup2\n      mstore\n      0x20\n      add\n      0x556e6b6e6f776e00000000000000000000000000000000000000000000000000\n      dup2\n      mstore\n      pop\n      swap1\n      pop\n        /* \"projeto_final/supply_chain.sol\":1496:1782  function stateToString(State _state) internal pure returns (string memory) {\r... */\n    tag_73:\n      swap2\n      swap1\n      pop\n      jump\t// out\n    tag_41:\n      dup3\n      dup1\n      sload\n      tag_83\n      swap1\n      tag_51\n      jump\t// in\n    tag_83:\n      swap1\n      0x00\n      mstore\n      keccak256(0x00, 0x20)\n      swap1\n      0x1f\n      add\n      0x20\n      swap1\n      div\n      dup2\n      add\n      swap3\n      dup3\n      tag_85\n      jumpi\n      0x00\n      dup6\n      sstore\n      jump(tag_84)\n    tag_85:\n      dup3\n      0x1f\n      lt\n      tag_86\n      jumpi\n      dup1\n      mload\n      not(0xff)\n      and\n      dup4\n      dup1\n      add\n      or\n      dup6\n      sstore\n      jump(tag_84)\n    tag_86:\n      dup3\n      dup1\n      add\n      0x01\n      add\n      dup6\n      sstore\n      dup3\n      iszero\n      tag_84\n      jumpi\n      swap2\n      dup3\n      add\n    tag_87:\n      dup3\n      dup2\n      gt\n      iszero\n      tag_88\n      jumpi\n      dup3\n      mload\n      dup3\n      sstore\n      swap2\n      0x20\n      add\n      swap2\n      swap1\n      0x01\n      add\n      swap1\n      jump(tag_87)\n    tag_88:\n    tag_84:\n      pop\n      swap1\n      pop\n      tag_89\n      swap2\n      swap1\n      tag_90\n      jump\t// in\n    tag_89:\n      pop\n      swap1\n      jump\t// out\n    tag_90:\n    tag_91:\n      dup1\n      dup3\n      gt\n      iszero\n      tag_92\n      jumpi\n      0x00\n      dup2\n      0x00\n      swap1\n      sstore\n      pop\n      0x01\n      add\n      jump(tag_91)\n    tag_92:\n      pop\n      swap1\n      jump\t// out\n        /* \"#utility.yul\":7:352   */\n    tag_94:\n      0x00\n        /* \"#utility.yul\":110:176   */\n      tag_96\n        /* \"#utility.yul\":126:175   */\n      tag_97\n        /* \"#utility.yul\":168:174   */\n      dup5\n        /* \"#utility.yul\":126:175   */\n      tag_98\n      jump\t// in\n    tag_97:\n        /* \"#utility.yul\":110:176   */\n      tag_99\n      jump\t// in\n    tag_96:\n        /* \"#utility.yul\":101:176   */\n      swap1\n      pop\n        /* \"#utility.yul\":199:205   */\n      dup3\n        /* \"#utility.yul\":192:197   */\n      dup2\n        /* \"#utility.yul\":185:206   */\n      mstore\n        /* \"#utility.yul\":237:241   */\n      0x20\n        /* \"#utility.yul\":230:235   */\n      dup2\n        /* \"#utility.yul\":226:242   */\n      add\n        /* \"#utility.yul\":275:278   */\n      dup5\n        /* \"#utility.yul\":266:272   */\n      dup5\n        /* \"#utility.yul\":261:264   */\n      dup5\n        /* \"#utility.yul\":257:273   */\n      add\n        /* \"#utility.yul\":254:279   */\n      gt\n        /* \"#utility.yul\":251:253   */\n      iszero\n      tag_100\n      jumpi\n        /* \"#utility.yul\":292:293   */\n      0x00\n        /* \"#utility.yul\":289:290   */\n      dup1\n        /* \"#utility.yul\":282:294   */\n      revert\n        /* \"#utility.yul\":251:253   */\n    tag_100:\n        /* \"#utility.yul\":305:346   */\n      tag_101\n        /* \"#utility.yul\":339:345   */\n      dup5\n        /* \"#utility.yul\":334:337   */\n      dup3\n        /* \"#utility.yul\":329:332   */\n      dup6\n        /* \"#utility.yul\":305:346   */\n      tag_102\n      jump\t// in\n    tag_101:\n        /* \"#utility.yul\":91:352   */\n      pop\n      swap4\n      swap3\n      pop\n      pop\n      pop\n      jump\t// out\n        /* \"#utility.yul\":358:497   */\n    tag_103:\n      0x00\n        /* \"#utility.yul\":442:448   */\n      dup2\n        /* \"#utility.yul\":429:449   */\n      calldataload\n        /* \"#utility.yul\":420:449   */\n      swap1\n      pop\n        /* \"#utility.yul\":458:491   */\n      tag_105\n        /* \"#utility.yul\":485:490   */\n      dup2\n        /* \"#utility.yul\":458:491   */\n      tag_106\n      jump\t// in\n    tag_105:\n        /* \"#utility.yul\":410:497   */\n      swap3\n      swap2\n      pop\n      pop\n      jump\t// out\n        /* \"#utility.yul\":503:656   */\n    tag_107:\n      0x00\n        /* \"#utility.yul\":594:600   */\n      dup2\n        /* \"#utility.yul\":581:601   */\n      calldataload\n        /* \"#utility.yul\":572:601   */\n      swap1\n      pop\n        /* \"#utility.yul\":610:650   */\n      tag_109\n        /* \"#utility.yul\":644:649   */\n      dup2\n        /* \"#utility.yul\":610:650   */\n      tag_110\n      jump\t// in\n    tag_109:\n        /* \"#utility.yul\":562:656   */\n      swap3\n      swap2\n      pop\n      pop\n      jump\t// out\n        /* \"#utility.yul\":676:949   */\n    tag_111:\n      0x00\n        /* \"#utility.yul\":781:784   */\n      dup3\n        /* \"#utility.yul\":774:778   */\n      0x1f\n        /* \"#utility.yul\":766:772   */\n      dup4\n        /* \"#utility.yul\":762:779   */\n      add\n        /* \"#utility.yul\":758:785   */\n      slt\n        /* \"#utility.yul\":748:750   */\n      tag_113\n      jumpi\n        /* \"#utility.yul\":799:800   */\n      0x00\n        /* \"#utility.yul\":796:797   */\n      dup1\n        /* \"#utility.yul\":789:801   */\n      revert\n        /* \"#utility.yul\":748:750   */\n    tag_113:\n        /* \"#utility.yul\":839:845   */\n      dup2\n        /* \"#utility.yul\":826:846   */\n      calldataload\n        /* \"#utility.yul\":864:943   */\n      tag_114\n        /* \"#utility.yul\":939:942   */\n      dup5\n        /* \"#utility.yul\":931:937   */\n      dup3\n        /* \"#utility.yul\":924:928   */\n      0x20\n        /* \"#utility.yul\":916:922   */\n      dup7\n        /* \"#utility.yul\":912:929   */\n      add\n        /* \"#utility.yul\":864:943   */\n      tag_94\n      jump\t// in\n    tag_114:\n        /* \"#utility.yul\":855:943   */\n      swap2\n      pop\n        /* \"#utility.yul\":738:949   */\n      pop\n      swap3\n      swap2\n      pop\n      pop\n      jump\t// out\n        /* \"#utility.yul\":955:1094   */\n    tag_115:\n      0x00\n        /* \"#utility.yul\":1039:1045   */\n      dup2\n        /* \"#utility.yul\":1026:1046   */\n      calldataload\n        /* \"#utility.yul\":1017:1046   */\n      swap1\n      pop\n        /* \"#utility.yul\":1055:1088   */\n      tag_117\n        /* \"#utility.yul\":1082:1087   */\n      dup2\n        /* \"#utility.yul\":1055:1088   */\n      tag_118\n      jump\t// in\n    tag_117:\n        /* \"#utility.yul\":1007:1094   */\n      swap3\n      swap2\n      pop\n      pop\n      jump\t// out\n        /* \"#utility.yul\":1100:1475   */\n    tag_11:\n      0x00\n        /* \"#utility.yul\":1218:1220   */\n      0x20\n        /* \"#utility.yul\":1206:1215   */\n      dup3\n        /* \"#utility.yul\":1197:1204   */\n      dup5\n        /* \"#utility.yul\":1193:1216   */\n      sub\n        /* \"#utility.yul\":1189:1221   */\n      slt\n        /* \"#utility.yul\":1186:1188   */\n      iszero\n      tag_120\n      jumpi\n        /* \"#utility.yul\":1234:1235   */\n      0x00\n        /* \"#utility.yul\":1231:1232   */\n      dup1\n        /* \"#utility.yul\":1224:1236   */\n      revert\n        /* \"#utility.yul\":1186:1188   */\n    tag_120:\n        /* \"#utility.yul\":1305:1306   */\n      0x00\n        /* \"#utility.yul\":1294:1303   */\n      dup3\n        /* \"#utility.yul\":1290:1307   */\n      add\n        /* \"#utility.yul\":1277:1308   */\n      calldataload\n        /* \"#utility.yul\":1335:1353   */\n      0xffffffffffffffff\n        /* \"#utility.yul\":1327:1333   */\n      dup2\n        /* \"#utility.yul\":1324:1354   */\n      gt\n        /* \"#utility.yul\":1321:1323   */\n      iszero\n      tag_121\n      jumpi\n        /* \"#utility.yul\":1367:1368   */\n      0x00\n        /* \"#utility.yul\":1364:1365   */\n      dup1\n        /* \"#utility.yul\":1357:1369   */\n      revert\n        /* \"#utility.yul\":1321:1323   */\n    tag_121:\n        /* \"#utility.yul\":1395:1458   */\n      tag_122\n        /* \"#utility.yul\":1450:1457   */\n      dup5\n        /* \"#utility.yul\":1441:1447   */\n      dup3\n        /* \"#utility.yul\":1430:1439   */\n      dup6\n        /* \"#utility.yul\":1426:1448   */\n      add\n        /* \"#utility.yul\":1395:1458   */\n      tag_111\n      jump\t// in\n    tag_122:\n        /* \"#utility.yul\":1385:1458   */\n      swap2\n      pop\n        /* \"#utility.yul\":1248:1468   */\n      pop\n        /* \"#utility.yul\":1176:1475   */\n      swap3\n      swap2\n      pop\n      pop\n      jump\t// out\n        /* \"#utility.yul\":1481:1743   */\n    tag_19:\n      0x00\n        /* \"#utility.yul\":1589:1591   */\n      0x20\n        /* \"#utility.yul\":1577:1586   */\n      dup3\n        /* \"#utility.yul\":1568:1575   */\n      dup5\n        /* \"#utility.yul\":1564:1587   */\n      sub\n        /* \"#utility.yul\":1560:1592   */\n      slt\n        /* \"#utility.yul\":1557:1559   */\n      iszero\n      tag_124\n      jumpi\n        /* \"#utility.yul\":1605:1606   */\n      0x00\n        /* \"#utility.yul\":1602:1603   */\n      dup1\n        /* \"#utility.yul\":1595:1607   */\n      revert\n        /* \"#utility.yul\":1557:1559   */\n    tag_124:\n        /* \"#utility.yul\":1648:1649   */\n      0x00\n        /* \"#utility.yul\":1673:1726   */\n      tag_125\n        /* \"#utility.yul\":1718:1725   */\n      dup5\n        /* \"#utility.yul\":1709:1715   */\n      dup3\n        /* \"#utility.yul\":1698:1707   */\n      dup6\n        /* \"#utility.yul\":1694:1716   */\n      add\n        /* \"#utility.yul\":1673:1726   */\n      tag_115\n      jump\t// in\n    tag_125:\n        /* \"#utility.yul\":1663:1726   */\n      swap2\n      pop\n        /* \"#utility.yul\":1619:1736   */\n      pop\n        /* \"#utility.yul\":1547:1743   */\n      swap3\n      swap2\n      pop\n      pop\n      jump\t// out\n        /* \"#utility.yul\":1749:2156   */\n    tag_15:\n      0x00\n      dup1\n        /* \"#utility.yul\":1874:1876   */\n      0x40\n        /* \"#utility.yul\":1862:1871   */\n      dup4\n        /* \"#utility.yul\":1853:1860   */\n      dup6\n        /* \"#utility.yul\":1849:1872   */\n      sub\n        /* \"#utility.yul\":1845:1877   */\n      slt\n        /* \"#utility.yul\":1842:1844   */\n      iszero\n      tag_127\n      jumpi\n        /* \"#utility.yul\":1890:1891   */\n      0x00\n        /* \"#utility.yul\":1887:1888   */\n      dup1\n        /* \"#utility.yul\":1880:1892   */\n      revert\n        /* \"#utility.yul\":1842:1844   */\n    tag_127:\n        /* \"#utility.yul\":1933:1934   */\n      0x00\n        /* \"#utility.yul\":1958:2011   */\n      tag_128\n        /* \"#utility.yul\":2003:2010   */\n      dup6\n        /* \"#utility.yul\":1994:2000   */\n      dup3\n        /* \"#utility.yul\":1983:1992   */\n      dup7\n        /* \"#utility.yul\":1979:2001   */\n      add\n        /* \"#utility.yul\":1958:2011   */\n      tag_115\n      jump\t// in\n    tag_128:\n        /* \"#utility.yul\":1948:2011   */\n      swap3\n      pop\n        /* \"#utility.yul\":1904:2021   */\n      pop\n        /* \"#utility.yul\":2060:2062   */\n      0x20\n        /* \"#utility.yul\":2086:2139   */\n      tag_129\n        /* \"#utility.yul\":2131:2138   */\n      dup6\n        /* \"#utility.yul\":2122:2128   */\n      dup3\n        /* \"#utility.yul\":2111:2120   */\n      dup7\n        /* \"#utility.yul\":2107:2129   */\n      add\n        /* \"#utility.yul\":2086:2139   */\n      tag_103\n      jump\t// in\n    tag_129:\n        /* \"#utility.yul\":2076:2139   */\n      swap2\n      pop\n        /* \"#utility.yul\":2031:2149   */\n      pop\n        /* \"#utility.yul\":1832:2156   */\n      swap3\n      pop\n      swap3\n      swap1\n      pop\n      jump\t// out\n        /* \"#utility.yul\":2162:2583   */\n    tag_34:\n      0x00\n      dup1\n        /* \"#utility.yul\":2294:2296   */\n      0x40\n        /* \"#utility.yul\":2282:2291   */\n      dup4\n        /* \"#utility.yul\":2273:2280   */\n      dup6\n        /* \"#utility.yul\":2269:2292   */\n      sub\n        /* \"#utility.yul\":2265:2297   */\n      slt\n        /* \"#utility.yul\":2262:2264   */\n      iszero\n      tag_131\n      jumpi\n        /* \"#utility.yul\":2310:2311   */\n      0x00\n        /* \"#utility.yul\":2307:2308   */\n      dup1\n        /* \"#utility.yul\":2300:2312   */\n      revert\n        /* \"#utility.yul\":2262:2264   */\n    tag_131:\n        /* \"#utility.yul\":2353:2354   */\n      0x00\n        /* \"#utility.yul\":2378:2431   */\n      tag_132\n        /* \"#utility.yul\":2423:2430   */\n      dup6\n        /* \"#utility.yul\":2414:2420   */\n      dup3\n        /* \"#utility.yul\":2403:2412   */\n      dup7\n        /* \"#utility.yul\":2399:2421   */\n      add\n        /* \"#utility.yul\":2378:2431   */\n      tag_115\n      jump\t// in\n    tag_132:\n        /* \"#utility.yul\":2368:2431   */\n      swap3\n      pop\n        /* \"#utility.yul\":2324:2441   */\n      pop\n        /* \"#utility.yul\":2480:2482   */\n      0x20\n        /* \"#utility.yul\":2506:2566   */\n      tag_133\n        /* \"#utility.yul\":2558:2565   */\n      dup6\n        /* \"#utility.yul\":2549:2555   */\n      dup3\n        /* \"#utility.yul\":2538:2547   */\n      dup7\n        /* \"#utility.yul\":2534:2556   */\n      add\n        /* \"#utility.yul\":2506:2566   */\n      tag_107\n      jump\t// in\n    tag_133:\n        /* \"#utility.yul\":2496:2566   */\n      swap2\n      pop\n        /* \"#utility.yul\":2451:2576   */\n      pop\n        /* \"#utility.yul\":2252:2583   */\n      swap3\n      pop\n      swap3\n      swap1\n      pop\n      jump\t// out\n        /* \"#utility.yul\":2589:2707   */\n    tag_134:\n        /* \"#utility.yul\":2676:2700   */\n      tag_136\n        /* \"#utility.yul\":2694:2699   */\n      dup2\n        /* \"#utility.yul\":2676:2700   */\n      tag_137\n      jump\t// in\n    tag_136:\n        /* \"#utility.yul\":2671:2674   */\n      dup3\n        /* \"#utility.yul\":2664:2701   */\n      mstore\n        /* \"#utility.yul\":2654:2707   */\n      pop\n      pop\n      jump\t// out\n        /* \"#utility.yul\":2713:2854   */\n    tag_138:\n        /* \"#utility.yul\":2805:2847   */\n      tag_140\n        /* \"#utility.yul\":2841:2846   */\n      dup2\n        /* \"#utility.yul\":2805:2847   */\n      tag_141\n      jump\t// in\n    tag_140:\n        /* \"#utility.yul\":2800:2803   */\n      dup3\n        /* \"#utility.yul\":2793:2848   */\n      mstore\n        /* \"#utility.yul\":2783:2854   */\n      pop\n      pop\n      jump\t// out\n        /* \"#utility.yul\":2860:3224   */\n    tag_142:\n      0x00\n        /* \"#utility.yul\":2976:3015   */\n      tag_144\n        /* \"#utility.yul\":3009:3014   */\n      dup3\n        /* \"#utility.yul\":2976:3015   */\n      tag_145\n      jump\t// in\n    tag_144:\n        /* \"#utility.yul\":3031:3102   */\n      tag_146\n        /* \"#utility.yul\":3095:3101   */\n      dup2\n        /* \"#utility.yul\":3090:3093   */\n      dup6\n        /* \"#utility.yul\":3031:3102   */\n      tag_147\n      jump\t// in\n    tag_146:\n        /* \"#utility.yul\":3024:3102   */\n      swap4\n      pop\n        /* \"#utility.yul\":3111:3163   */\n      tag_148\n        /* \"#utility.yul\":3156:3162   */\n      dup2\n        /* \"#utility.yul\":3151:3154   */\n      dup6\n        /* \"#utility.yul\":3144:3148   */\n      0x20\n        /* \"#utility.yul\":3137:3142   */\n      dup7\n        /* \"#utility.yul\":3133:3149   */\n      add\n        /* \"#utility.yul\":3111:3163   */\n      tag_149\n      jump\t// in\n    tag_148:\n        /* \"#utility.yul\":3188:3217   */\n      tag_150\n        /* \"#utility.yul\":3210:3216   */\n      dup2\n        /* \"#utility.yul\":3188:3217   */\n      tag_151\n      jump\t// in\n    tag_150:\n        /* \"#utility.yul\":3183:3186   */\n      dup5\n        /* \"#utility.yul\":3179:3218   */\n      add\n        /* \"#utility.yul\":3172:3218   */\n      swap2\n      pop\n        /* \"#utility.yul\":2952:3224   */\n      pop\n      swap3\n      swap2\n      pop\n      pop\n      jump\t// out\n        /* \"#utility.yul\":3230:3596   */\n    tag_152:\n      0x00\n        /* \"#utility.yul\":3393:3460   */\n      tag_154\n        /* \"#utility.yul\":3457:3459   */\n      0x34\n        /* \"#utility.yul\":3452:3455   */\n      dup4\n        /* \"#utility.yul\":3393:3460   */\n      tag_147\n      jump\t// in\n    tag_154:\n        /* \"#utility.yul\":3386:3460   */\n      swap2\n      pop\n        /* \"#utility.yul\":3469:3562   */\n      tag_155\n        /* \"#utility.yul\":3558:3561   */\n      dup3\n        /* \"#utility.yul\":3469:3562   */\n      tag_156\n      jump\t// in\n    tag_155:\n        /* \"#utility.yul\":3587:3589   */\n      0x40\n        /* \"#utility.yul\":3582:3585   */\n      dup3\n        /* \"#utility.yul\":3578:3590   */\n      add\n        /* \"#utility.yul\":3571:3590   */\n      swap1\n      pop\n        /* \"#utility.yul\":3376:3596   */\n      swap2\n      swap1\n      pop\n      jump\t// out\n        /* \"#utility.yul\":3602:3968   */\n    tag_157:\n      0x00\n        /* \"#utility.yul\":3765:3832   */\n      tag_159\n        /* \"#utility.yul\":3829:3831   */\n      0x2e\n        /* \"#utility.yul\":3824:3827   */\n      dup4\n        /* \"#utility.yul\":3765:3832   */\n      tag_147\n      jump\t// in\n    tag_159:\n        /* \"#utility.yul\":3758:3832   */\n      swap2\n      pop\n        /* \"#utility.yul\":3841:3934   */\n      tag_160\n        /* \"#utility.yul\":3930:3933   */\n      dup3\n        /* \"#utility.yul\":3841:3934   */\n      tag_161\n      jump\t// in\n    tag_160:\n        /* \"#utility.yul\":3959:3961   */\n      0x40\n        /* \"#utility.yul\":3954:3957   */\n      dup3\n        /* \"#utility.yul\":3950:3962   */\n      add\n        /* \"#utility.yul\":3943:3962   */\n      swap1\n      pop\n        /* \"#utility.yul\":3748:3968   */\n      swap2\n      swap1\n      pop\n      jump\t// out\n        /* \"#utility.yul\":3974:4092   */\n    tag_162:\n        /* \"#utility.yul\":4061:4085   */\n      tag_164\n        /* \"#utility.yul\":4079:4084   */\n      dup2\n        /* \"#utility.yul\":4061:4085   */\n      tag_165\n      jump\t// in\n    tag_164:\n        /* \"#utility.yul\":4056:4059   */\n      dup3\n        /* \"#utility.yul\":4049:4086   */\n      mstore\n        /* \"#utility.yul\":4039:4092   */\n      pop\n      pop\n      jump\t// out\n        /* \"#utility.yul\":4098:4517   */\n    tag_47:\n      0x00\n        /* \"#utility.yul\":4302:4304   */\n      0x20\n        /* \"#utility.yul\":4291:4300   */\n      dup3\n        /* \"#utility.yul\":4287:4305   */\n      add\n        /* \"#utility.yul\":4279:4305   */\n      swap1\n      pop\n        /* \"#utility.yul\":4351:4360   */\n      dup2\n        /* \"#utility.yul\":4345:4349   */\n      dup2\n        /* \"#utility.yul\":4341:4361   */\n      sub\n        /* \"#utility.yul\":4337:4338   */\n      0x00\n        /* \"#utility.yul\":4326:4335   */\n      dup4\n        /* \"#utility.yul\":4322:4339   */\n      add\n        /* \"#utility.yul\":4315:4362   */\n      mstore\n        /* \"#utility.yul\":4379:4510   */\n      tag_167\n        /* \"#utility.yul\":4505:4509   */\n      dup2\n        /* \"#utility.yul\":4379:4510   */\n      tag_152\n      jump\t// in\n    tag_167:\n        /* \"#utility.yul\":4371:4510   */\n      swap1\n      pop\n        /* \"#utility.yul\":4269:4517   */\n      swap2\n      swap1\n      pop\n      jump\t// out\n        /* \"#utility.yul\":4523:4942   */\n    tag_69:\n      0x00\n        /* \"#utility.yul\":4727:4729   */\n      0x20\n        /* \"#utility.yul\":4716:4725   */\n      dup3\n        /* \"#utility.yul\":4712:4730   */\n      add\n        /* \"#utility.yul\":4704:4730   */\n      swap1\n      pop\n        /* \"#utility.yul\":4776:4785   */\n      dup2\n        /* \"#utility.yul\":4770:4774   */\n      dup2\n        /* \"#utility.yul\":4766:4786   */\n      sub\n        /* \"#utility.yul\":4762:4763   */\n      0x00\n        /* \"#utility.yul\":4751:4760   */\n      dup4\n        /* \"#utility.yul\":4747:4764   */\n      add\n        /* \"#utility.yul\":4740:4787   */\n      mstore\n        /* \"#utility.yul\":4804:4935   */\n      tag_169\n        /* \"#utility.yul\":4930:4934   */\n      dup2\n        /* \"#utility.yul\":4804:4935   */\n      tag_157\n      jump\t// in\n    tag_169:\n        /* \"#utility.yul\":4796:4935   */\n      swap1\n      pop\n        /* \"#utility.yul\":4694:4942   */\n      swap2\n      swap1\n      pop\n      jump\t// out\n        /* \"#utility.yul\":4948:5170   */\n    tag_31:\n      0x00\n        /* \"#utility.yul\":5079:5081   */\n      0x20\n        /* \"#utility.yul\":5068:5077   */\n      dup3\n        /* \"#utility.yul\":5064:5082   */\n      add\n        /* \"#utility.yul\":5056:5082   */\n      swap1\n      pop\n        /* \"#utility.yul\":5092:5163   */\n      tag_171\n        /* \"#utility.yul\":5160:5161   */\n      0x00\n        /* \"#utility.yul\":5149:5158   */\n      dup4\n        /* \"#utility.yul\":5145:5162   */\n      add\n        /* \"#utility.yul\":5136:5142   */\n      dup5\n        /* \"#utility.yul\":5092:5163   */\n      tag_162\n      jump\t// in\n    tag_171:\n        /* \"#utility.yul\":5046:5170   */\n      swap3\n      swap2\n      pop\n      pop\n      jump\t// out\n        /* \"#utility.yul\":5176:5618   */\n    tag_49:\n      0x00\n        /* \"#utility.yul\":5363:5365   */\n      0x60\n        /* \"#utility.yul\":5352:5361   */\n      dup3\n        /* \"#utility.yul\":5348:5366   */\n      add\n        /* \"#utility.yul\":5340:5366   */\n      swap1\n      pop\n        /* \"#utility.yul\":5376:5447   */\n      tag_173\n        /* \"#utility.yul\":5444:5445   */\n      0x00\n        /* \"#utility.yul\":5433:5442   */\n      dup4\n        /* \"#utility.yul\":5429:5446   */\n      add\n        /* \"#utility.yul\":5420:5426   */\n      dup7\n        /* \"#utility.yul\":5376:5447   */\n      tag_162\n      jump\t// in\n    tag_173:\n        /* \"#utility.yul\":5457:5529   */\n      tag_174\n        /* \"#utility.yul\":5525:5527   */\n      0x20\n        /* \"#utility.yul\":5514:5523   */\n      dup4\n        /* \"#utility.yul\":5510:5528   */\n      add\n        /* \"#utility.yul\":5501:5507   */\n      dup6\n        /* \"#utility.yul\":5457:5529   */\n      tag_134\n      jump\t// in\n    tag_174:\n        /* \"#utility.yul\":5539:5611   */\n      tag_175\n        /* \"#utility.yul\":5607:5609   */\n      0x40\n        /* \"#utility.yul\":5596:5605   */\n      dup4\n        /* \"#utility.yul\":5592:5610   */\n      add\n        /* \"#utility.yul\":5583:5589   */\n      dup5\n        /* \"#utility.yul\":5539:5611   */\n      tag_134\n      jump\t// in\n    tag_175:\n        /* \"#utility.yul\":5330:5618   */\n      swap5\n      swap4\n      pop\n      pop\n      pop\n      pop\n      jump\t// out\n        /* \"#utility.yul\":5624:5966   */\n    tag_72:\n      0x00\n        /* \"#utility.yul\":5788:5790   */\n      0x40\n        /* \"#utility.yul\":5777:5786   */\n      dup3\n        /* \"#utility.yul\":5773:5791   */\n      add\n        /* \"#utility.yul\":5765:5791   */\n      swap1\n      pop\n        /* \"#utility.yul\":5801:5872   */\n      tag_177\n        /* \"#utility.yul\":5869:5870   */\n      0x00\n        /* \"#utility.yul\":5858:5867   */\n      dup4\n        /* \"#utility.yul\":5854:5871   */\n      add\n        /* \"#utility.yul\":5845:5851   */\n      dup6\n        /* \"#utility.yul\":5801:5872   */\n      tag_162\n      jump\t// in\n    tag_177:\n        /* \"#utility.yul\":5882:5959   */\n      tag_178\n        /* \"#utility.yul\":5955:5957   */\n      0x20\n        /* \"#utility.yul\":5944:5953   */\n      dup4\n        /* \"#utility.yul\":5940:5958   */\n      add\n        /* \"#utility.yul\":5931:5937   */\n      dup5\n        /* \"#utility.yul\":5882:5959   */\n      tag_138\n      jump\t// in\n    tag_178:\n        /* \"#utility.yul\":5755:5966   */\n      swap4\n      swap3\n      pop\n      pop\n      pop\n      jump\t// out\n        /* \"#utility.yul\":5972:6626   */\n    tag_22:\n      0x00\n        /* \"#utility.yul\":6212:6215   */\n      0x80\n        /* \"#utility.yul\":6201:6210   */\n      dup3\n        /* \"#utility.yul\":6197:6216   */\n      add\n        /* \"#utility.yul\":6189:6216   */\n      swap1\n      pop\n        /* \"#utility.yul\":6226:6297   */\n      tag_180\n        /* \"#utility.yul\":6294:6295   */\n      0x00\n        /* \"#utility.yul\":6283:6292   */\n      dup4\n        /* \"#utility.yul\":6279:6296   */\n      add\n        /* \"#utility.yul\":6270:6276   */\n      dup8\n        /* \"#utility.yul\":6226:6297   */\n      tag_162\n      jump\t// in\n    tag_180:\n        /* \"#utility.yul\":6344:6353   */\n      dup2\n        /* \"#utility.yul\":6338:6342   */\n      dup2\n        /* \"#utility.yul\":6334:6354   */\n      sub\n        /* \"#utility.yul\":6329:6331   */\n      0x20\n        /* \"#utility.yul\":6318:6327   */\n      dup4\n        /* \"#utility.yul\":6314:6332   */\n      add\n        /* \"#utility.yul\":6307:6355   */\n      mstore\n        /* \"#utility.yul\":6372:6450   */\n      tag_181\n        /* \"#utility.yul\":6445:6449   */\n      dup2\n        /* \"#utility.yul\":6436:6442   */\n      dup7\n        /* \"#utility.yul\":6372:6450   */\n      tag_142\n      jump\t// in\n    tag_181:\n        /* \"#utility.yul\":6364:6450   */\n      swap1\n      pop\n        /* \"#utility.yul\":6460:6532   */\n      tag_182\n        /* \"#utility.yul\":6528:6530   */\n      0x40\n        /* \"#utility.yul\":6517:6526   */\n      dup4\n        /* \"#utility.yul\":6513:6531   */\n      add\n        /* \"#utility.yul\":6504:6510   */\n      dup6\n        /* \"#utility.yul\":6460:6532   */\n      tag_134\n      jump\t// in\n    tag_182:\n        /* \"#utility.yul\":6542:6619   */\n      tag_183\n        /* \"#utility.yul\":6615:6617   */\n      0x60\n        /* \"#utility.yul\":6604:6613   */\n      dup4\n        /* \"#utility.yul\":6600:6618   */\n      add\n        /* \"#utility.yul\":6591:6597   */\n      dup5\n        /* \"#utility.yul\":6542:6619   */\n      tag_138\n      jump\t// in\n    tag_183:\n        /* \"#utility.yul\":6179:6626   */\n      swap6\n      swap5\n      pop\n      pop\n      pop\n      pop\n      pop\n      jump\t// out\n        /* \"#utility.yul\":6632:7367   */\n    tag_27:\n      0x00\n        /* \"#utility.yul\":6887:6890   */\n      0x80\n        /* \"#utility.yul\":6876:6885   */\n      dup3\n        /* \"#utility.yul\":6872:6891   */\n      add\n        /* \"#utility.yul\":6864:6891   */\n      swap1\n      pop\n        /* \"#utility.yul\":6901:6972   */\n      tag_185\n        /* \"#utility.yul\":6969:6970   */\n      0x00\n        /* \"#utility.yul\":6958:6967   */\n      dup4\n        /* \"#utility.yul\":6954:6971   */\n      add\n        /* \"#utility.yul\":6945:6951   */\n      dup8\n        /* \"#utility.yul\":6901:6972   */\n      tag_162\n      jump\t// in\n    tag_185:\n        /* \"#utility.yul\":7019:7028   */\n      dup2\n        /* \"#utility.yul\":7013:7017   */\n      dup2\n        /* \"#utility.yul\":7009:7029   */\n      sub\n        /* \"#utility.yul\":7004:7006   */\n      0x20\n        /* \"#utility.yul\":6993:7002   */\n      dup4\n        /* \"#utility.yul\":6989:7007   */\n      add\n        /* \"#utility.yul\":6982:7030   */\n      mstore\n        /* \"#utility.yul\":7047:7125   */\n      tag_186\n        /* \"#utility.yul\":7120:7124   */\n      dup2\n        /* \"#utility.yul\":7111:7117   */\n      dup7\n        /* \"#utility.yul\":7047:7125   */\n      tag_142\n      jump\t// in\n    tag_186:\n        /* \"#utility.yul\":7039:7125   */\n      swap1\n      pop\n        /* \"#utility.yul\":7135:7207   */\n      tag_187\n        /* \"#utility.yul\":7203:7205   */\n      0x40\n        /* \"#utility.yul\":7192:7201   */\n      dup4\n        /* \"#utility.yul\":7188:7206   */\n      add\n        /* \"#utility.yul\":7179:7185   */\n      dup6\n        /* \"#utility.yul\":7135:7207   */\n      tag_134\n      jump\t// in\n    tag_187:\n        /* \"#utility.yul\":7254:7263   */\n      dup2\n        /* \"#utility.yul\":7248:7252   */\n      dup2\n        /* \"#utility.yul\":7244:7264   */\n      sub\n        /* \"#utility.yul\":7239:7241   */\n      0x60\n        /* \"#utility.yul\":7228:7237   */\n      dup4\n        /* \"#utility.yul\":7224:7242   */\n      add\n        /* \"#utility.yul\":7217:7265   */\n      mstore\n        /* \"#utility.yul\":7282:7360   */\n      tag_188\n        /* \"#utility.yul\":7355:7359   */\n      dup2\n        /* \"#utility.yul\":7346:7352   */\n      dup5\n        /* \"#utility.yul\":7282:7360   */\n      tag_142\n      jump\t// in\n    tag_188:\n        /* \"#utility.yul\":7274:7360   */\n      swap1\n      pop\n        /* \"#utility.yul\":6854:7367   */\n      swap6\n      swap5\n      pop\n      pop\n      pop\n      pop\n      pop\n      jump\t// out\n        /* \"#utility.yul\":7373:7502   */\n    tag_99:\n      0x00\n        /* \"#utility.yul\":7434:7454   */\n      tag_190\n      tag_191\n      jump\t// in\n    tag_190:\n        /* \"#utility.yul\":7424:7454   */\n      swap1\n      pop\n        /* \"#utility.yul\":7463:7496   */\n      tag_192\n        /* \"#utility.yul\":7491:7495   */\n      dup3\n        /* \"#utility.yul\":7483:7489   */\n      dup3\n        /* \"#utility.yul\":7463:7496   */\n      tag_193\n      jump\t// in\n    tag_192:\n        /* \"#utility.yul\":7414:7502   */\n      swap2\n      swap1\n      pop\n      jump\t// out\n        /* \"#utility.yul\":7508:7583   */\n    tag_191:\n      0x00\n        /* \"#utility.yul\":7574:7576   */\n      0x40\n        /* \"#utility.yul\":7568:7577   */\n      mload\n        /* \"#utility.yul\":7558:7577   */\n      swap1\n      pop\n        /* \"#utility.yul\":7548:7583   */\n      swap1\n      jump\t// out\n        /* \"#utility.yul\":7589:7897   */\n    tag_98:\n      0x00\n        /* \"#utility.yul\":7741:7759   */\n      0xffffffffffffffff\n        /* \"#utility.yul\":7733:7739   */\n      dup3\n        /* \"#utility.yul\":7730:7760   */\n      gt\n        /* \"#utility.yul\":7727:7729   */\n      iszero\n      tag_196\n      jumpi\n        /* \"#utility.yul\":7763:7781   */\n      tag_197\n      tag_198\n      jump\t// in\n    tag_197:\n        /* \"#utility.yul\":7727:7729   */\n    tag_196:\n        /* \"#utility.yul\":7801:7830   */\n      tag_199\n        /* \"#utility.yul\":7823:7829   */\n      dup3\n        /* \"#utility.yul\":7801:7830   */\n      tag_151\n      jump\t// in\n    tag_199:\n        /* \"#utility.yul\":7793:7830   */\n      swap1\n      pop\n        /* \"#utility.yul\":7885:7889   */\n      0x20\n        /* \"#utility.yul\":7879:7883   */\n      dup2\n        /* \"#utility.yul\":7875:7890   */\n      add\n        /* \"#utility.yul\":7867:7890   */\n      swap1\n      pop\n        /* \"#utility.yul\":7656:7897   */\n      swap2\n      swap1\n      pop\n      jump\t// out\n        /* \"#utility.yul\":7903:8002   */\n    tag_145:\n      0x00\n        /* \"#utility.yul\":7989:7994   */\n      dup2\n        /* \"#utility.yul\":7983:7995   */\n      mload\n        /* \"#utility.yul\":7973:7995   */\n      swap1\n      pop\n        /* \"#utility.yul\":7962:8002   */\n      swap2\n      swap1\n      pop\n      jump\t// out\n        /* \"#utility.yul\":8008:8177   */\n    tag_147:\n      0x00\n        /* \"#utility.yul\":8126:8132   */\n      dup3\n        /* \"#utility.yul\":8121:8124   */\n      dup3\n        /* \"#utility.yul\":8114:8133   */\n      mstore\n        /* \"#utility.yul\":8166:8170   */\n      0x20\n        /* \"#utility.yul\":8161:8164   */\n      dup3\n        /* \"#utility.yul\":8157:8171   */\n      add\n        /* \"#utility.yul\":8142:8171   */\n      swap1\n      pop\n        /* \"#utility.yul\":8104:8177   */\n      swap3\n      swap2\n      pop\n      pop\n      jump\t// out\n        /* \"#utility.yul\":8183:8279   */\n    tag_137:\n      0x00\n        /* \"#utility.yul\":8249:8273   */\n      tag_203\n        /* \"#utility.yul\":8267:8272   */\n      dup3\n        /* \"#utility.yul\":8249:8273   */\n      tag_204\n      jump\t// in\n    tag_203:\n        /* \"#utility.yul\":8238:8273   */\n      swap1\n      pop\n        /* \"#utility.yul\":8228:8279   */\n      swap2\n      swap1\n      pop\n      jump\t// out\n        /* \"#utility.yul\":8285:8410   */\n    tag_205:\n      0x00\n        /* \"#utility.yul\":8358:8363   */\n      dup2\n        /* \"#utility.yul\":8347:8363   */\n      swap1\n      pop\n        /* \"#utility.yul\":8364:8404   */\n      tag_207\n        /* \"#utility.yul\":8398:8403   */\n      dup3\n        /* \"#utility.yul\":8364:8404   */\n      tag_208\n      jump\t// in\n    tag_207:\n        /* \"#utility.yul\":8337:8410   */\n      swap2\n      swap1\n      pop\n      jump\t// out\n        /* \"#utility.yul\":8416:8542   */\n    tag_204:\n      0x00\n        /* \"#utility.yul\":8493:8535   */\n      0xffffffffffffffffffffffffffffffffffffffff\n        /* \"#utility.yul\":8486:8491   */\n      dup3\n        /* \"#utility.yul\":8482:8536   */\n      and\n        /* \"#utility.yul\":8471:8536   */\n      swap1\n      pop\n        /* \"#utility.yul\":8461:8542   */\n      swap2\n      swap1\n      pop\n      jump\t// out\n        /* \"#utility.yul\":8548:8625   */\n    tag_165:\n      0x00\n        /* \"#utility.yul\":8614:8619   */\n      dup2\n        /* \"#utility.yul\":8603:8619   */\n      swap1\n      pop\n        /* \"#utility.yul\":8593:8625   */\n      swap2\n      swap1\n      pop\n      jump\t// out\n        /* \"#utility.yul\":8631:8756   */\n    tag_141:\n      0x00\n        /* \"#utility.yul\":8719:8750   */\n      tag_212\n        /* \"#utility.yul\":8744:8749   */\n      dup3\n        /* \"#utility.yul\":8719:8750   */\n      tag_205\n      jump\t// in\n    tag_212:\n        /* \"#utility.yul\":8706:8750   */\n      swap1\n      pop\n        /* \"#utility.yul\":8696:8756   */\n      swap2\n      swap1\n      pop\n      jump\t// out\n        /* \"#utility.yul\":8762:8916   */\n    tag_102:\n        /* \"#utility.yul\":8846:8852   */\n      dup3\n        /* \"#utility.yul\":8841:8844   */\n      dup2\n        /* \"#utility.yul\":8836:8839   */\n      dup4\n        /* \"#utility.yul\":8823:8853   */\n      calldatacopy\n        /* \"#utility.yul\":8908:8909   */\n      0x00\n        /* \"#utility.yul\":8899:8905   */\n      dup4\n        /* \"#utility.yul\":8894:8897   */\n      dup4\n        /* \"#utility.yul\":8890:8906   */\n      add\n        /* \"#utility.yul\":8883:8910   */\n      mstore\n        /* \"#utility.yul\":8813:8916   */\n      pop\n      pop\n      pop\n      jump\t// out\n        /* \"#utility.yul\":8922:9229   */\n    tag_149:\n        /* \"#utility.yul\":8990:8991   */\n      0x00\n        /* \"#utility.yul\":9000:9113   */\n    tag_215:\n        /* \"#utility.yul\":9014:9020   */\n      dup4\n        /* \"#utility.yul\":9011:9012   */\n      dup2\n        /* \"#utility.yul\":9008:9021   */\n      lt\n        /* \"#utility.yul\":9000:9113   */\n      iszero\n      tag_217\n      jumpi\n        /* \"#utility.yul\":9099:9100   */\n      dup1\n        /* \"#utility.yul\":9094:9097   */\n      dup3\n        /* \"#utility.yul\":9090:9101   */\n      add\n        /* \"#utility.yul\":9084:9102   */\n      mload\n        /* \"#utility.yul\":9080:9081   */\n      dup2\n        /* \"#utility.yul\":9075:9078   */\n      dup5\n        /* \"#utility.yul\":9071:9082   */\n      add\n        /* \"#utility.yul\":9064:9103   */\n      mstore\n        /* \"#utility.yul\":9036:9038   */\n      0x20\n        /* \"#utility.yul\":9033:9034   */\n      dup2\n        /* \"#utility.yul\":9029:9039   */\n      add\n        /* \"#utility.yul\":9024:9039   */\n      swap1\n      pop\n        /* \"#utility.yul\":9000:9113   */\n      jump(tag_215)\n    tag_217:\n        /* \"#utility.yul\":9131:9137   */\n      dup4\n        /* \"#utility.yul\":9128:9129   */\n      dup2\n        /* \"#utility.yul\":9125:9138   */\n      gt\n        /* \"#utility.yul\":9122:9124   */\n      iszero\n      tag_218\n      jumpi\n        /* \"#utility.yul\":9211:9212   */\n      0x00\n        /* \"#utility.yul\":9202:9208   */\n      dup5\n        /* \"#utility.yul\":9197:9200   */\n      dup5\n        /* \"#utility.yul\":9193:9209   */\n      add\n        /* \"#utility.yul\":9186:9213   */\n      mstore\n        /* \"#utility.yul\":9122:9124   */\n    tag_218:\n        /* \"#utility.yul\":8971:9229   */\n      pop\n      pop\n      pop\n      pop\n      jump\t// out\n        /* \"#utility.yul\":9235:9555   */\n    tag_51:\n      0x00\n        /* \"#utility.yul\":9316:9317   */\n      0x02\n        /* \"#utility.yul\":9310:9314   */\n      dup3\n        /* \"#utility.yul\":9306:9318   */\n      div\n        /* \"#utility.yul\":9296:9318   */\n      swap1\n      pop\n        /* \"#utility.yul\":9363:9364   */\n      0x01\n        /* \"#utility.yul\":9357:9361   */\n      dup3\n        /* \"#utility.yul\":9353:9365   */\n      and\n        /* \"#utility.yul\":9384:9402   */\n      dup1\n        /* \"#utility.yul\":9374:9376   */\n      tag_220\n      jumpi\n        /* \"#utility.yul\":9440:9444   */\n      0x7f\n        /* \"#utility.yul\":9432:9438   */\n      dup3\n        /* \"#utility.yul\":9428:9445   */\n      and\n        /* \"#utility.yul\":9418:9445   */\n      swap2\n      pop\n        /* \"#utility.yul\":9374:9376   */\n    tag_220:\n        /* \"#utility.yul\":9502:9504   */\n      0x20\n        /* \"#utility.yul\":9494:9500   */\n      dup3\n        /* \"#utility.yul\":9491:9505   */\n      lt\n        /* \"#utility.yul\":9471:9489   */\n      dup2\n        /* \"#utility.yul\":9468:9506   */\n      eq\n        /* \"#utility.yul\":9465:9467   */\n      iszero\n      tag_221\n      jumpi\n        /* \"#utility.yul\":9521:9539   */\n      tag_222\n      tag_223\n      jump\t// in\n    tag_222:\n        /* \"#utility.yul\":9465:9467   */\n    tag_221:\n        /* \"#utility.yul\":9286:9555   */\n      pop\n      swap2\n      swap1\n      pop\n      jump\t// out\n        /* \"#utility.yul\":9561:9842   */\n    tag_193:\n        /* \"#utility.yul\":9644:9671   */\n      tag_225\n        /* \"#utility.yul\":9666:9670   */\n      dup3\n        /* \"#utility.yul\":9644:9671   */\n      tag_151\n      jump\t// in\n    tag_225:\n        /* \"#utility.yul\":9636:9642   */\n      dup2\n        /* \"#utility.yul\":9632:9672   */\n      add\n        /* \"#utility.yul\":9774:9780   */\n      dup2\n        /* \"#utility.yul\":9762:9772   */\n      dup2\n        /* \"#utility.yul\":9759:9781   */\n      lt\n        /* \"#utility.yul\":9738:9756   */\n      0xffffffffffffffff\n        /* \"#utility.yul\":9726:9736   */\n      dup3\n        /* \"#utility.yul\":9723:9757   */\n      gt\n        /* \"#utility.yul\":9720:9782   */\n      or\n        /* \"#utility.yul\":9717:9719   */\n      iszero\n      tag_226\n      jumpi\n        /* \"#utility.yul\":9785:9803   */\n      tag_227\n      tag_198\n      jump\t// in\n    tag_227:\n        /* \"#utility.yul\":9717:9719   */\n    tag_226:\n        /* \"#utility.yul\":9825:9835   */\n      dup1\n        /* \"#utility.yul\":9821:9823   */\n      0x40\n        /* \"#utility.yul\":9814:9836   */\n      mstore\n        /* \"#utility.yul\":9604:9842   */\n      pop\n      pop\n      pop\n      jump\t// out\n        /* \"#utility.yul\":9848:10081   */\n    tag_38:\n      0x00\n        /* \"#utility.yul\":9910:9934   */\n      tag_229\n        /* \"#utility.yul\":9928:9933   */\n      dup3\n        /* \"#utility.yul\":9910:9934   */\n      tag_165\n      jump\t// in\n    tag_229:\n        /* \"#utility.yul\":9901:9934   */\n      swap2\n      pop\n        /* \"#utility.yul\":9956:10022   */\n      0xffffffffffffffffffffffffffffffffffffffffffffffffffffffffffffffff\n        /* \"#utility.yul\":9949:9954   */\n      dup3\n        /* \"#utility.yul\":9946:10023   */\n      eq\n        /* \"#utility.yul\":9943:9945   */\n      iszero\n      tag_230\n      jumpi\n        /* \"#utility.yul\":10026:10044   */\n      tag_231\n      tag_232\n      jump\t// in\n    tag_231:\n        /* \"#utility.yul\":9943:9945   */\n    tag_230:\n        /* \"#utility.yul\":10073:10074   */\n      0x01\n        /* \"#utility.yul\":10066:10071   */\n      dup3\n        /* \"#utility.yul\":10062:10075   */\n      add\n        /* \"#utility.yul\":10055:10075   */\n      swap1\n      pop\n        /* \"#utility.yul\":9891:10081   */\n      swap2\n      swap1\n      pop\n      jump\t// out\n        /* \"#utility.yul\":10087:10267   */\n    tag_232:\n        /* \"#utility.yul\":10135:10212   */\n      0x4e487b7100000000000000000000000000000000000000000000000000000000\n        /* \"#utility.yul\":10132:10133   */\n      0x00\n        /* \"#utility.yul\":10125:10213   */\n      mstore\n        /* \"#utility.yul\":10232:10236   */\n      0x11\n        /* \"#utility.yul\":10229:10230   */\n      0x04\n        /* \"#utility.yul\":10222:10237   */\n      mstore\n        /* \"#utility.yul\":10256:10260   */\n      0x24\n        /* \"#utility.yul\":10253:10254   */\n      0x00\n        /* \"#utility.yul\":10246:10261   */\n      revert\n        /* \"#utility.yul\":10273:10453   */\n    tag_234:\n        /* \"#utility.yul\":10321:10398   */\n      0x4e487b7100000000000000000000000000000000000000000000000000000000\n        /* \"#utility.yul\":10318:10319   */\n      0x00\n        /* \"#utility.yul\":10311:10399   */\n      mstore\n        /* \"#utility.yul\":10418:10422   */\n      0x21\n        /* \"#utility.yul\":10415:10416   */\n      0x04\n        /* \"#utility.yul\":10408:10423   */\n      mstore\n        /* \"#utility.yul\":10442:10446   */\n      0x24\n        /* \"#utility.yul\":10439:10440   */\n      0x00\n        /* \"#utility.yul\":10432:10447   */\n      revert\n        /* \"#utility.yul\":10459:10639   */\n    tag_223:\n        /* \"#utility.yul\":10507:10584   */\n      0x4e487b7100000000000000000000000000000000000000000000000000000000\n        /* \"#utility.yul\":10504:10505   */\n      0x00\n        /* \"#utility.yul\":10497:10585   */\n      mstore\n        /* \"#utility.yul\":10604:10608   */\n      0x22\n        /* \"#utility.yul\":10601:10602   */\n      0x04\n        /* \"#utility.yul\":10594:10609   */\n      mstore\n        /* \"#utility.yul\":10628:10632   */\n      0x24\n        /* \"#utility.yul\":10625:10626   */\n      0x00\n        /* \"#utility.yul\":10618:10633   */\n      revert\n        /* \"#utility.yul\":10645:10825   */\n    tag_198:\n        /* \"#utility.yul\":10693:10770   */\n      0x4e487b7100000000000000000000000000000000000000000000000000000000\n        /* \"#utility.yul\":10690:10691   */\n      0x00\n        /* \"#utility.yul\":10683:10771   */\n      mstore\n        /* \"#utility.yul\":10790:10794   */\n      0x41\n        /* \"#utility.yul\":10787:10788   */\n      0x04\n        /* \"#utility.yul\":10780:10795   */\n      mstore\n        /* \"#utility.yul\":10814:10818   */\n      0x24\n        /* \"#utility.yul\":10811:10812   */\n      0x00\n        /* \"#utility.yul\":10804:10819   */\n      revert\n        /* \"#utility.yul\":10831:10933   */\n    tag_151:\n      0x00\n        /* \"#utility.yul\":10923:10925   */\n      0x1f\n        /* \"#utility.yul\":10919:10926   */\n      not\n        /* \"#utility.yul\":10914:10916   */\n      0x1f\n        /* \"#utility.yul\":10907:10912   */\n      dup4\n        /* \"#utility.yul\":10903:10917   */\n      add\n        /* \"#utility.yul\":10899:10927   */\n      and\n        /* \"#utility.yul\":10889:10927   */\n      swap1\n      pop\n        /* \"#utility.yul\":10879:10933   */\n      swap2\n      swap1\n      pop\n      jump\t// out\n        /* \"#utility.yul\":10939:11178   */\n    tag_156:\n        /* \"#utility.yul\":11079:11113   */\n      0x4170656e6173206f2070726f70726965746172696f20706f6465207472616e73\n        /* \"#utility.yul\":11075:11076   */\n      0x00\n        /* \"#utility.yul\":11067:11073   */\n      dup3\n        /* \"#utility.yul\":11063:11077   */\n      add\n        /* \"#utility.yul\":11056:11114   */\n      mstore\n        /* \"#utility.yul\":11148:11170   */\n      0x666572697220612070726f70726965646164652e000000000000000000000000\n        /* \"#utility.yul\":11143:11145   */\n      0x20\n        /* \"#utility.yul\":11135:11141   */\n      dup3\n        /* \"#utility.yul\":11131:11146   */\n      add\n        /* \"#utility.yul\":11124:11171   */\n      mstore\n        /* \"#utility.yul\":11045:11178   */\n      pop\n      jump\t// out\n        /* \"#utility.yul\":11184:11417   */\n    tag_161:\n        /* \"#utility.yul\":11324:11358   */\n      0x4170656e6173206f2070726f70726965746172696f20706f646520617475616c\n        /* \"#utility.yul\":11320:11321   */\n      0x00\n        /* \"#utility.yul\":11312:11318   */\n      dup3\n        /* \"#utility.yul\":11308:11322   */\n      add\n        /* \"#utility.yul\":11301:11359   */\n      mstore\n        /* \"#utility.yul\":11393:11409   */\n      0x697a6172206f2065737461646f2e000000000000000000000000000000000000\n        /* \"#utility.yul\":11388:11390   */\n      0x20\n        /* \"#utility.yul\":11380:11386   */\n      dup3\n        /* \"#utility.yul\":11376:11391   */\n      add\n        /* \"#utility.yul\":11369:11410   */\n      mstore\n        /* \"#utility.yul\":11290:11417   */\n      pop\n      jump\t// out\n        /* \"#utility.yul\":11423:11535   */\n    tag_208:\n        /* \"#utility.yul\":11503:11504   */\n      0x03\n        /* \"#utility.yul\":11496:11501   */\n      dup2\n        /* \"#utility.yul\":11493:11505   */\n      lt\n        /* \"#utility.yul\":11483:11485   */\n      tag_242\n      jumpi\n        /* \"#utility.yul\":11509:11527   */\n      tag_243\n      tag_234\n      jump\t// in\n    tag_243:\n        /* \"#utility.yul\":11483:11485   */\n    tag_242:\n        /* \"#utility.yul\":11473:11535   */\n      pop\n      jump\t// out\n        /* \"#utility.yul\":11541:11663   */\n    tag_106:\n        /* \"#utility.yul\":11614:11638   */\n      tag_245\n        /* \"#utility.yul\":11632:11637   */\n      dup2\n        /* \"#utility.yul\":11614:11638   */\n      tag_137\n      jump\t// in\n    tag_245:\n        /* \"#utility.yul\":11607:11612   */\n      dup2\n        /* \"#utility.yul\":11604:11639   */\n      eq\n        /* \"#utility.yul\":11594:11596   */\n      tag_246\n      jumpi\n        /* \"#utility.yul\":11653:11654   */\n      0x00\n        /* \"#utility.yul\":11650:11651   */\n      dup1\n        /* \"#utility.yul\":11643:11655   */\n      revert\n        /* \"#utility.yul\":11594:11596   */\n    tag_246:\n        /* \"#utility.yul\":11584:11663   */\n      pop\n      jump\t// out\n        /* \"#utility.yul\":11669:11775   */\n    tag_110:\n        /* \"#utility.yul\":11749:11750   */\n      0x03\n        /* \"#utility.yul\":11742:11747   */\n      dup2\n        /* \"#utility.yul\":11739:11751   */\n      lt\n        /* \"#utility.yul\":11729:11731   */\n      tag_248\n      jumpi\n        /* \"#utility.yul\":11765:11766   */\n      0x00\n        /* \"#utility.yul\":11762:11763   */\n      dup1\n        /* \"#utility.yul\":11755:11767   */\n      revert\n        /* \"#utility.yul\":11729:11731   */\n    tag_248:\n        /* \"#utility.yul\":11719:11775   */\n      pop\n      jump\t// out\n        /* \"#utility.yul\":11781:11903   */\n    tag_118:\n        /* \"#utility.yul\":11854:11878   */\n      tag_250\n        /* \"#utility.yul\":11872:11877   */\n      dup2\n        /* \"#utility.yul\":11854:11878   */\n      tag_165\n      jump\t// in\n    tag_250:\n        /* \"#utility.yul\":11847:11852   */\n      dup2\n        /* \"#utility.yul\":11844:11879   */\n      eq\n        /* \"#utility.yul\":11834:11836   */\n      tag_251\n      jumpi\n        /* \"#utility.yul\":11893:11894   */\n      0x00\n        /* \"#utility.yul\":11890:11891   */\n      dup1\n        /* \"#utility.yul\":11883:11895   */\n      revert\n        /* \"#utility.yul\":11834:11836   */\n    tag_251:\n        /* \"#utility.yul\":11824:11903   */\n      pop\n      jump\t// out\n\n    auxdata: 0xa264697066735822122081434613f0c4038f456121ffc4572e33c9e39a10db82266a663c90873a6d90eb64736f6c63430008020033\n}\n",
				"bytecode": {
					"linkReferences": {},
					"object": "60806040526000805534801561001457600080fd5b506112a6806100246000396000f3fe608060405234801561001057600080fd5b50600436106100625760003560e01c806302ec06be1461006757806329507f73146100835780637acc0b201461009f578063b9db15b4146100d2578063e0f6ef8714610105578063ffbafdfe14610123575b600080fd5b610081600480360381019061007c9190610c0a565b61013f565b005b61009d60048036038101906100989190610c74565b6102e6565b005b6100b960048036038101906100b49190610c4b565b61045a565b6040516100c99493929190610e53565b60405180910390f35b6100ec60048036038101906100e79190610c4b565b61053f565b6040516100fc9493929190610e9f565b60405180910390f35b61010d610714565b60405161011a9190610dd8565b60405180910390f35b61013d60048036038101906101389190610cb0565b61071a565b005b6000808154809291906101519061106a565b9190505550604051806080016040528060005481526020018281526020013373ffffffffffffffffffffffffffffffffffffffff168152602001600060028111156101c5577f4e487b7100000000000000000000000000000000000000000000000000000000600052602160045260246000fd5b8152506001600080548152602001908152602001600020600082015181600001556020820151816001019080519060200190610202929190610ac0565b5060408201518160020160006101000a81548173ffffffffffffffffffffffffffffffffffffffff021916908373ffffffffffffffffffffffffffffffffffffffff16021790555060608201518160020160146101000a81548160ff0219169083600281111561029b577f4e487b7100000000000000000000000000000000000000000000000000000000600052602160045260246000fd5b02179055509050507f60829b580f3894476b1b030a2090507680999ff981165f87121a469a8d563cdf600054823360006040516102db9493929190610e53565b60405180910390a150565b3373ffffffffffffffffffffffffffffffffffffffff166001600084815260200190815260200160002060020160009054906101000a900473ffffffffffffffffffffffffffffffffffffffff1673ffffffffffffffffffffffffffffffffffffffff161461038a576040517f08c379a000000000000000000000000000000000000000000000000000000000815260040161038190610d98565b60405180910390fd5b60006001600084815260200190815260200160002060020160009054906101000a900473ffffffffffffffffffffffffffffffffffffffff169050816001600085815260200190815260200160002060020160006101000a81548173ffffffffffffffffffffffffffffffffffffffff021916908373ffffffffffffffffffffffffffffffffffffffff1602179055507f16b85f49bf01212961345d3016c9a531894accf62eb7680f2045d79185cc0ec083828460405161044d93929190610df3565b60405180910390a1505050565b600160205280600052604060002060009150905080600001549080600101805461048390611007565b80601f01602080910402602001604051908101604052809291908181526020018280546104af90611007565b80156104fc5780601f106104d1576101008083540402835291602001916104fc565b820191906000526020600020905b8154815290600101906020018083116104df57829003601f168201915b5050505050908060020160009054906101000a900473ffffffffffffffffffffffffffffffffffffffff16908060020160149054906101000a900460ff16905084565b60006060600060606000600160008781526020019081526020016000206040518060800160405290816000820154815260200160018201805461058190611007565b80601f01602080910402602001604051908101604052809291908181526020018280546105ad90611007565b80156105fa5780601f106105cf576101008083540402835291602001916105fa565b820191906000526020600020905b8154815290600101906020018083116105dd57829003601f168201915b505050505081526020016002820160009054906101000a900473ffffffffffffffffffffffffffffffffffffffff1673ffffffffffffffffffffffffffffffffffffffff1673ffffffffffffffffffffffffffffffffffffffff1681526020016002820160149054906101000a900460ff1660028111156106a4577f4e487b7100000000000000000000000000000000000000000000000000000000600052602160045260246000fd5b60028111156106dc577f4e487b7100000000000000000000000000000000000000000000000000000000600052602160045260246000fd5b81525050905060006106f1826060015161085f565b905081600001518260200151836040015183955095509550955050509193509193565b60005481565b3373ffffffffffffffffffffffffffffffffffffffff166001600084815260200190815260200160002060020160009054906101000a900473ffffffffffffffffffffffffffffffffffffffff1673ffffffffffffffffffffffffffffffffffffffff16146107be576040517f08c379a00000000000000000000000000000000000000000000000000000000081526004016107b590610db8565b60405180910390fd5b806001600084815260200190815260200160002060020160146101000a81548160ff0219169083600281111561081d577f4e487b7100000000000000000000000000000000000000000000000000000000600052602160045260246000fd5b02179055507f5f37cb0e663bb52ce92e7edf0e34cd00146463aea0dabf3dd721dbd522ec98588282604051610853929190610e2a565b60405180910390a15050565b60606000600281111561089b577f4e487b7100000000000000000000000000000000000000000000000000000000600052602160045260246000fd5b8260028111156108d4577f4e487b7100000000000000000000000000000000000000000000000000000000600052602160045260246000fd5b1415610917576040518060400160405280600781526020017f43726561746564000000000000000000000000000000000000000000000000008152509050610abb565b60016002811115610951577f4e487b7100000000000000000000000000000000000000000000000000000000600052602160045260246000fd5b82600281111561098a577f4e487b7100000000000000000000000000000000000000000000000000000000600052602160045260246000fd5b14156109cd576040518060400160405280600981526020017f496e5472616e73697400000000000000000000000000000000000000000000008152509050610abb565b600280811115610a06577f4e487b7100000000000000000000000000000000000000000000000000000000600052602160045260246000fd5b826002811115610a3f577f4e487b7100000000000000000000000000000000000000000000000000000000600052602160045260246000fd5b1415610a82576040518060400160405280600981526020017f44656c69766572656400000000000000000000000000000000000000000000008152509050610abb565b6040518060400160405280600781526020017f556e6b6e6f776e0000000000000000000000000000000000000000000000000081525090505b919050565b828054610acc90611007565b90600052602060002090601f016020900481019282610aee5760008555610b35565b82601f10610b0757805160ff1916838001178555610b35565b82800160010185558215610b35579182015b82811115610b34578251825591602001919060010190610b19565b5b509050610b429190610b46565b5090565b5b80821115610b5f576000816000905550600101610b47565b5090565b6000610b76610b7184610f17565b610ef2565b905082815260208101848484011115610b8e57600080fd5b610b99848285610fc5565b509392505050565b600081359050610bb081611232565b92915050565b600081359050610bc581611249565b92915050565b600082601f830112610bdc57600080fd5b8135610bec848260208601610b63565b91505092915050565b600081359050610c0481611259565b92915050565b600060208284031215610c1c57600080fd5b600082013567ffffffffffffffff811115610c3657600080fd5b610c4284828501610bcb565b91505092915050565b600060208284031215610c5d57600080fd5b6000610c6b84828501610bf5565b91505092915050565b60008060408385031215610c8757600080fd5b6000610c9585828601610bf5565b9250506020610ca685828601610ba1565b9150509250929050565b60008060408385031215610cc357600080fd5b6000610cd185828601610bf5565b9250506020610ce285828601610bb6565b9150509250929050565b610cf581610f64565b82525050565b610d0481610fb3565b82525050565b6000610d1582610f48565b610d1f8185610f53565b9350610d2f818560208601610fd4565b610d388161116f565b840191505092915050565b6000610d50603483610f53565b9150610d5b82611180565b604082019050919050565b6000610d73602e83610f53565b9150610d7e826111cf565b604082019050919050565b610d9281610fa9565b82525050565b60006020820190508181036000830152610db181610d43565b9050919050565b60006020820190508181036000830152610dd181610d66565b9050919050565b6000602082019050610ded6000830184610d89565b92915050565b6000606082019050610e086000830186610d89565b610e156020830185610cec565b610e226040830184610cec565b949350505050565b6000604082019050610e3f6000830185610d89565b610e4c6020830184610cfb565b9392505050565b6000608082019050610e686000830187610d89565b8181036020830152610e7a8186610d0a565b9050610e896040830185610cec565b610e966060830184610cfb565b95945050505050565b6000608082019050610eb46000830187610d89565b8181036020830152610ec68186610d0a565b9050610ed56040830185610cec565b8181036060830152610ee78184610d0a565b905095945050505050565b6000610efc610f0d565b9050610f088282611039565b919050565b6000604051905090565b600067ffffffffffffffff821115610f3257610f31611140565b5b610f3b8261116f565b9050602081019050919050565b600081519050919050565b600082825260208201905092915050565b6000610f6f82610f89565b9050919050565b6000819050610f848261121e565b919050565b600073ffffffffffffffffffffffffffffffffffffffff82169050919050565b6000819050919050565b6000610fbe82610f76565b9050919050565b82818337600083830152505050565b60005b83811015610ff2578082015181840152602081019050610fd7565b83811115611001576000848401525b50505050565b6000600282049050600182168061101f57607f821691505b6020821081141561103357611032611111565b5b50919050565b6110428261116f565b810181811067ffffffffffffffff8211171561106157611060611140565b5b80604052505050565b600061107582610fa9565b91507fffffffffffffffffffffffffffffffffffffffffffffffffffffffffffffffff8214156110a8576110a76110b3565b5b600182019050919050565b7f4e487b7100000000000000000000000000000000000000000000000000000000600052601160045260246000fd5b7f4e487b7100000000000000000000000000000000000000000000000000000000600052602160045260246000fd5b7f4e487b7100000000000000000000000000000000000000000000000000000000600052602260045260246000fd5b7f4e487b7100000000000000000000000000000000000000000000000000000000600052604160045260246000fd5b6000601f19601f8301169050919050565b7f4170656e6173206f2070726f70726965746172696f20706f6465207472616e7360008201527f666572697220612070726f70726965646164652e000000000000000000000000602082015250565b7f4170656e6173206f2070726f70726965746172696f20706f646520617475616c60008201527f697a6172206f2065737461646f2e000000000000000000000000000000000000602082015250565b6003811061122f5761122e6110e2565b5b50565b61123b81610f64565b811461124657600080fd5b50565b6003811061125657600080fd5b50565b61126281610fa9565b811461126d57600080fd5b5056fea264697066735822122081434613f0c4038f456121ffc4572e33c9e39a10db82266a663c90873a6d90eb64736f6c63430008020033",
					"opcodes": "PUSH1 0x80 PUSH1 0x40 MSTORE PUSH1 0x0 DUP1 SSTORE CALLVALUE DUP1 ISZERO PUSH2 0x14 JUMPI PUSH1 0x0 DUP1 REVERT JUMPDEST POP PUSH2 0x12A6 DUP1 PUSH2 0x24 PUSH1 0x0 CODECOPY PUSH1 0x0 RETURN INVALID PUSH1 0x80 PUSH1 0x40 MSTORE CALLVALUE DUP1 ISZERO PUSH2 0x10 JUMPI PUSH1 0x0 DUP1 REVERT JUMPDEST POP PUSH1 0x4 CALLDATASIZE LT PUSH2 0x62 JUMPI PUSH1 0x0 CALLDATALOAD PUSH1 0xE0 SHR DUP1 PUSH4 0x2EC06BE EQ PUSH2 0x67 JUMPI DUP1 PUSH4 0x29507F73 EQ PUSH2 0x83 JUMPI DUP1 PUSH4 0x7ACC0B20 EQ PUSH2 0x9F JUMPI DUP1 PUSH4 0xB9DB15B4 EQ PUSH2 0xD2 JUMPI DUP1 PUSH4 0xE0F6EF87 EQ PUSH2 0x105 JUMPI DUP1 PUSH4 0xFFBAFDFE EQ PUSH2 0x123 JUMPI JUMPDEST PUSH1 0x0 DUP1 REVERT JUMPDEST PUSH2 0x81 PUSH1 0x4 DUP1 CALLDATASIZE SUB DUP2 ADD SWAP1 PUSH2 0x7C SWAP2 SWAP1 PUSH2 0xC0A JUMP JUMPDEST PUSH2 0x13F JUMP JUMPDEST STOP JUMPDEST PUSH2 0x9D PUSH1 0x4 DUP1 CALLDATASIZE SUB DUP2 ADD SWAP1 PUSH2 0x98 SWAP2 SWAP1 PUSH2 0xC74 JUMP JUMPDEST PUSH2 0x2E6 JUMP JUMPDEST STOP JUMPDEST PUSH2 0xB9 PUSH1 0x4 DUP1 CALLDATASIZE SUB DUP2 ADD SWAP1 PUSH2 0xB4 SWAP2 SWAP1 PUSH2 0xC4B JUMP JUMPDEST PUSH2 0x45A JUMP JUMPDEST PUSH1 0x40 MLOAD PUSH2 0xC9 SWAP5 SWAP4 SWAP3 SWAP2 SWAP1 PUSH2 0xE53 JUMP JUMPDEST PUSH1 0x40 MLOAD DUP1 SWAP2 SUB SWAP1 RETURN JUMPDEST PUSH2 0xEC PUSH1 0x4 DUP1 CALLDATASIZE SUB DUP2 ADD SWAP1 PUSH2 0xE7 SWAP2 SWAP1 PUSH2 0xC4B JUMP JUMPDEST PUSH2 0x53F JUMP JUMPDEST PUSH1 0x40 MLOAD PUSH2 0xFC SWAP5 SWAP4 SWAP3 SWAP2 SWAP1 PUSH2 0xE9F JUMP JUMPDEST PUSH1 0x40 MLOAD DUP1 SWAP2 SUB SWAP1 RETURN JUMPDEST PUSH2 0x10D PUSH2 0x714 JUMP JUMPDEST PUSH1 0x40 MLOAD PUSH2 0x11A SWAP2 SWAP1 PUSH2 0xDD8 JUMP JUMPDEST PUSH1 0x40 MLOAD DUP1 SWAP2 SUB SWAP1 RETURN JUMPDEST PUSH2 0x13D PUSH1 0x4 DUP1 CALLDATASIZE SUB DUP2 ADD SWAP1 PUSH2 0x138 SWAP2 SWAP1 PUSH2 0xCB0 JUMP JUMPDEST PUSH2 0x71A JUMP JUMPDEST STOP JUMPDEST PUSH1 0x0 DUP1 DUP2 SLOAD DUP1 SWAP3 SWAP2 SWAP1 PUSH2 0x151 SWAP1 PUSH2 0x106A JUMP JUMPDEST SWAP2 SWAP1 POP SSTORE POP PUSH1 0x40 MLOAD DUP1 PUSH1 0x80 ADD PUSH1 0x40 MSTORE DUP1 PUSH1 0x0 SLOAD DUP2 MSTORE PUSH1 0x20 ADD DUP3 DUP2 MSTORE PUSH1 0x20 ADD CALLER PUSH20 0xFFFFFFFFFFFFFFFFFFFFFFFFFFFFFFFFFFFFFFFF AND DUP2 MSTORE PUSH1 0x20 ADD PUSH1 0x0 PUSH1 0x2 DUP2 GT ISZERO PUSH2 0x1C5 JUMPI PUSH32 0x4E487B7100000000000000000000000000000000000000000000000000000000 PUSH1 0x0 MSTORE PUSH1 0x21 PUSH1 0x4 MSTORE PUSH1 0x24 PUSH1 0x0 REVERT JUMPDEST DUP2 MSTORE POP PUSH1 0x1 PUSH1 0x0 DUP1 SLOAD DUP2 MSTORE PUSH1 0x20 ADD SWAP1 DUP2 MSTORE PUSH1 0x20 ADD PUSH1 0x0 KECCAK256 PUSH1 0x0 DUP3 ADD MLOAD DUP2 PUSH1 0x0 ADD SSTORE PUSH1 0x20 DUP3 ADD MLOAD DUP2 PUSH1 0x1 ADD SWAP1 DUP1 MLOAD SWAP1 PUSH1 0x20 ADD SWAP1 PUSH2 0x202 SWAP3 SWAP2 SWAP1 PUSH2 0xAC0 JUMP JUMPDEST POP PUSH1 0x40 DUP3 ADD MLOAD DUP2 PUSH1 0x2 ADD PUSH1 0x0 PUSH2 0x100 EXP DUP2 SLOAD DUP2 PUSH20 0xFFFFFFFFFFFFFFFFFFFFFFFFFFFFFFFFFFFFFFFF MUL NOT AND SWAP1 DUP4 PUSH20 0xFFFFFFFFFFFFFFFFFFFFFFFFFFFFFFFFFFFFFFFF AND MUL OR SWAP1 SSTORE POP PUSH1 0x60 DUP3 ADD MLOAD DUP2 PUSH1 0x2 ADD PUSH1 0x14 PUSH2 0x100 EXP DUP2 SLOAD DUP2 PUSH1 0xFF MUL NOT AND SWAP1 DUP4 PUSH1 0x2 DUP2 GT ISZERO PUSH2 0x29B JUMPI PUSH32 0x4E487B7100000000000000000000000000000000000000000000000000000000 PUSH1 0x0 MSTORE PUSH1 0x21 PUSH1 0x4 MSTORE PUSH1 0x24 PUSH1 0x0 REVERT JUMPDEST MUL OR SWAP1 SSTORE POP SWAP1 POP POP PUSH32 0x60829B580F3894476B1B030A2090507680999FF981165F87121A469A8D563CDF PUSH1 0x0 SLOAD DUP3 CALLER PUSH1 0x0 PUSH1 0x40 MLOAD PUSH2 0x2DB SWAP5 SWAP4 SWAP3 SWAP2 SWAP1 PUSH2 0xE53 JUMP JUMPDEST PUSH1 0x40 MLOAD DUP1 SWAP2 SUB SWAP1 LOG1 POP JUMP JUMPDEST CALLER PUSH20 0xFFFFFFFFFFFFFFFFFFFFFFFFFFFFFFFFFFFFFFFF AND PUSH1 0x1 PUSH1 0x0 DUP5 DUP2 MSTORE PUSH1 0x20 ADD SWAP1 DUP2 MSTORE PUSH1 0x20 ADD PUSH1 0x0 KECCAK256 PUSH1 0x2 ADD PUSH1 0x0 SWAP1 SLOAD SWAP1 PUSH2 0x100 EXP SWAP1 DIV PUSH20 0xFFFFFFFFFFFFFFFFFFFFFFFFFFFFFFFFFFFFFFFF AND PUSH20 0xFFFFFFFFFFFFFFFFFFFFFFFFFFFFFFFFFFFFFFFF AND EQ PUSH2 0x38A JUMPI PUSH1 0x40 MLOAD PUSH32 0x8C379A000000000000000000000000000000000000000000000000000000000 DUP2 MSTORE PUSH1 0x4 ADD PUSH2 0x381 SWAP1 PUSH2 0xD98 JUMP JUMPDEST PUSH1 0x40 MLOAD DUP1 SWAP2 SUB SWAP1 REVERT JUMPDEST PUSH1 0x0 PUSH1 0x1 PUSH1 0x0 DUP5 DUP2 MSTORE PUSH1 0x20 ADD SWAP1 DUP2 MSTORE PUSH1 0x20 ADD PUSH1 0x0 KECCAK256 PUSH1 0x2 ADD PUSH1 0x0 SWAP1 SLOAD SWAP1 PUSH2 0x100 EXP SWAP1 DIV PUSH20 0xFFFFFFFFFFFFFFFFFFFFFFFFFFFFFFFFFFFFFFFF AND SWAP1 POP DUP2 PUSH1 0x1 PUSH1 0x0 DUP6 DUP2 MSTORE PUSH1 0x20 ADD SWAP1 DUP2 MSTORE PUSH1 0x20 ADD PUSH1 0x0 KECCAK256 PUSH1 0x2 ADD PUSH1 0x0 PUSH2 0x100 EXP DUP2 SLOAD DUP2 PUSH20 0xFFFFFFFFFFFFFFFFFFFFFFFFFFFFFFFFFFFFFFFF MUL NOT AND SWAP1 DUP4 PUSH20 0xFFFFFFFFFFFFFFFFFFFFFFFFFFFFFFFFFFFFFFFF AND MUL OR SWAP1 SSTORE POP PUSH32 0x16B85F49BF01212961345D3016C9A531894ACCF62EB7680F2045D79185CC0EC0 DUP4 DUP3 DUP5 PUSH1 0x40 MLOAD PUSH2 0x44D SWAP4 SWAP3 SWAP2 SWAP1 PUSH2 0xDF3 JUMP JUMPDEST PUSH1 0x40 MLOAD DUP1 SWAP2 SUB SWAP1 LOG1 POP POP POP JUMP JUMPDEST PUSH1 0x1 PUSH1 0x20 MSTORE DUP1 PUSH1 0x0 MSTORE PUSH1 0x40 PUSH1 0x0 KECCAK256 PUSH1 0x0 SWAP2 POP SWAP1 POP DUP1 PUSH1 0x0 ADD SLOAD SWAP1 DUP1 PUSH1 0x1 ADD DUP1 SLOAD PUSH2 0x483 SWAP1 PUSH2 0x1007 JUMP JUMPDEST DUP1 PUSH1 0x1F ADD PUSH1 0x20 DUP1 SWAP2 DIV MUL PUSH1 0x20 ADD PUSH1 0x40 MLOAD SWAP1 DUP2 ADD PUSH1 0x40 MSTORE DUP1 SWAP3 SWAP2 SWAP1 DUP2 DUP2 MSTORE PUSH1 0x20 ADD DUP3 DUP1 SLOAD PUSH2 0x4AF SWAP1 PUSH2 0x1007 JUMP JUMPDEST DUP1 ISZERO PUSH2 0x4FC JUMPI DUP1 PUSH1 0x1F LT PUSH2 0x4D1 JUMPI PUSH2 0x100 DUP1 DUP4 SLOAD DIV MUL DUP4 MSTORE SWAP2 PUSH1 0x20 ADD SWAP2 PUSH2 0x4FC JUMP JUMPDEST DUP3 ADD SWAP2 SWAP1 PUSH1 0x0 MSTORE PUSH1 0x20 PUSH1 0x0 KECCAK256 SWAP1 JUMPDEST DUP2 SLOAD DUP2 MSTORE SWAP1 PUSH1 0x1 ADD SWAP1 PUSH1 0x20 ADD DUP1 DUP4 GT PUSH2 0x4DF JUMPI DUP3 SWAP1 SUB PUSH1 0x1F AND DUP3 ADD SWAP2 JUMPDEST POP POP POP POP POP SWAP1 DUP1 PUSH1 0x2 ADD PUSH1 0x0 SWAP1 SLOAD SWAP1 PUSH2 0x100 EXP SWAP1 DIV PUSH20 0xFFFFFFFFFFFFFFFFFFFFFFFFFFFFFFFFFFFFFFFF AND SWAP1 DUP1 PUSH1 0x2 ADD PUSH1 0x14 SWAP1 SLOAD SWAP1 PUSH2 0x100 EXP SWAP1 DIV PUSH1 0xFF AND SWAP1 POP DUP5 JUMP JUMPDEST PUSH1 0x0 PUSH1 0x60 PUSH1 0x0 PUSH1 0x60 PUSH1 0x0 PUSH1 0x1 PUSH1 0x0 DUP8 DUP2 MSTORE PUSH1 0x20 ADD SWAP1 DUP2 MSTORE PUSH1 0x20 ADD PUSH1 0x0 KECCAK256 PUSH1 0x40 MLOAD DUP1 PUSH1 0x80 ADD PUSH1 0x40 MSTORE SWAP1 DUP2 PUSH1 0x0 DUP3 ADD SLOAD DUP2 MSTORE PUSH1 0x20 ADD PUSH1 0x1 DUP3 ADD DUP1 SLOAD PUSH2 0x581 SWAP1 PUSH2 0x1007 JUMP JUMPDEST DUP1 PUSH1 0x1F ADD PUSH1 0x20 DUP1 SWAP2 DIV MUL PUSH1 0x20 ADD PUSH1 0x40 MLOAD SWAP1 DUP2 ADD PUSH1 0x40 MSTORE DUP1 SWAP3 SWAP2 SWAP1 DUP2 DUP2 MSTORE PUSH1 0x20 ADD DUP3 DUP1 SLOAD PUSH2 0x5AD SWAP1 PUSH2 0x1007 JUMP JUMPDEST DUP1 ISZERO PUSH2 0x5FA JUMPI DUP1 PUSH1 0x1F LT PUSH2 0x5CF JUMPI PUSH2 0x100 DUP1 DUP4 SLOAD DIV MUL DUP4 MSTORE SWAP2 PUSH1 0x20 ADD SWAP2 PUSH2 0x5FA JUMP JUMPDEST DUP3 ADD SWAP2 SWAP1 PUSH1 0x0 MSTORE PUSH1 0x20 PUSH1 0x0 KECCAK256 SWAP1 JUMPDEST DUP2 SLOAD DUP2 MSTORE SWAP1 PUSH1 0x1 ADD SWAP1 PUSH1 0x20 ADD DUP1 DUP4 GT PUSH2 0x5DD JUMPI DUP3 SWAP1 SUB PUSH1 0x1F AND DUP3 ADD SWAP2 JUMPDEST POP POP POP POP POP DUP2 MSTORE PUSH1 0x20 ADD PUSH1 0x2 DUP3 ADD PUSH1 0x0 SWAP1 SLOAD SWAP1 PUSH2 0x100 EXP SWAP1 DIV PUSH20 0xFFFFFFFFFFFFFFFFFFFFFFFFFFFFFFFFFFFFFFFF AND PUSH20 0xFFFFFFFFFFFFFFFFFFFFFFFFFFFFFFFFFFFFFFFF AND PUSH20 0xFFFFFFFFFFFFFFFFFFFFFFFFFFFFFFFFFFFFFFFF AND DUP2 MSTORE PUSH1 0x20 ADD PUSH1 0x2 DUP3 ADD PUSH1 0x14 SWAP1 SLOAD SWAP1 PUSH2 0x100 EXP SWAP1 DIV PUSH1 0xFF AND PUSH1 0x2 DUP2 GT ISZERO PUSH2 0x6A4 JUMPI PUSH32 0x4E487B7100000000000000000000000000000000000000000000000000000000 PUSH1 0x0 MSTORE PUSH1 0x21 PUSH1 0x4 MSTORE PUSH1 0x24 PUSH1 0x0 REVERT JUMPDEST PUSH1 0x2 DUP2 GT ISZERO PUSH2 0x6DC JUMPI PUSH32 0x4E487B7100000000000000000000000000000000000000000000000000000000 PUSH1 0x0 MSTORE PUSH1 0x21 PUSH1 0x4 MSTORE PUSH1 0x24 PUSH1 0x0 REVERT JUMPDEST DUP2 MSTORE POP POP SWAP1 POP PUSH1 0x0 PUSH2 0x6F1 DUP3 PUSH1 0x60 ADD MLOAD PUSH2 0x85F JUMP JUMPDEST SWAP1 POP DUP2 PUSH1 0x0 ADD MLOAD DUP3 PUSH1 0x20 ADD MLOAD DUP4 PUSH1 0x40 ADD MLOAD DUP4 SWAP6 POP SWAP6 POP SWAP6 POP SWAP6 POP POP POP SWAP2 SWAP4 POP SWAP2 SWAP4 JUMP JUMPDEST PUSH1 0x0 SLOAD DUP2 JUMP JUMPDEST CALLER PUSH20 0xFFFFFFFFFFFFFFFFFFFFFFFFFFFFFFFFFFFFFFFF AND PUSH1 0x1 PUSH1 0x0 DUP5 DUP2 MSTORE PUSH1 0x20 ADD SWAP1 DUP2 MSTORE PUSH1 0x20 ADD PUSH1 0x0 KECCAK256 PUSH1 0x2 ADD PUSH1 0x0 SWAP1 SLOAD SWAP1 PUSH2 0x100 EXP SWAP1 DIV PUSH20 0xFFFFFFFFFFFFFFFFFFFFFFFFFFFFFFFFFFFFFFFF AND PUSH20 0xFFFFFFFFFFFFFFFFFFFFFFFFFFFFFFFFFFFFFFFF AND EQ PUSH2 0x7BE JUMPI PUSH1 0x40 MLOAD PUSH32 0x8C379A000000000000000000000000000000000000000000000000000000000 DUP2 MSTORE PUSH1 0x4 ADD PUSH2 0x7B5 SWAP1 PUSH2 0xDB8 JUMP JUMPDEST PUSH1 0x40 MLOAD DUP1 SWAP2 SUB SWAP1 REVERT JUMPDEST DUP1 PUSH1 0x1 PUSH1 0x0 DUP5 DUP2 MSTORE PUSH1 0x20 ADD SWAP1 DUP2 MSTORE PUSH1 0x20 ADD PUSH1 0x0 KECCAK256 PUSH1 0x2 ADD PUSH1 0x14 PUSH2 0x100 EXP DUP2 SLOAD DUP2 PUSH1 0xFF MUL NOT AND SWAP1 DUP4 PUSH1 0x2 DUP2 GT ISZERO PUSH2 0x81D JUMPI PUSH32 0x4E487B7100000000000000000000000000000000000000000000000000000000 PUSH1 0x0 MSTORE PUSH1 0x21 PUSH1 0x4 MSTORE PUSH1 0x24 PUSH1 0x0 REVERT JUMPDEST MUL OR SWAP1 SSTORE POP PUSH32 0x5F37CB0E663BB52CE92E7EDF0E34CD00146463AEA0DABF3DD721DBD522EC9858 DUP3 DUP3 PUSH1 0x40 MLOAD PUSH2 0x853 SWAP3 SWAP2 SWAP1 PUSH2 0xE2A JUMP JUMPDEST PUSH1 0x40 MLOAD DUP1 SWAP2 SUB SWAP1 LOG1 POP POP JUMP JUMPDEST PUSH1 0x60 PUSH1 0x0 PUSH1 0x2 DUP2 GT ISZERO PUSH2 0x89B JUMPI PUSH32 0x4E487B7100000000000000000000000000000000000000000000000000000000 PUSH1 0x0 MSTORE PUSH1 0x21 PUSH1 0x4 MSTORE PUSH1 0x24 PUSH1 0x0 REVERT JUMPDEST DUP3 PUSH1 0x2 DUP2 GT ISZERO PUSH2 0x8D4 JUMPI PUSH32 0x4E487B7100000000000000000000000000000000000000000000000000000000 PUSH1 0x0 MSTORE PUSH1 0x21 PUSH1 0x4 MSTORE PUSH1 0x24 PUSH1 0x0 REVERT JUMPDEST EQ ISZERO PUSH2 0x917 JUMPI PUSH1 0x40 MLOAD DUP1 PUSH1 0x40 ADD PUSH1 0x40 MSTORE DUP1 PUSH1 0x7 DUP2 MSTORE PUSH1 0x20 ADD PUSH32 0x4372656174656400000000000000000000000000000000000000000000000000 DUP2 MSTORE POP SWAP1 POP PUSH2 0xABB JUMP JUMPDEST PUSH1 0x1 PUSH1 0x2 DUP2 GT ISZERO PUSH2 0x951 JUMPI PUSH32 0x4E487B7100000000000000000000000000000000000000000000000000000000 PUSH1 0x0 MSTORE PUSH1 0x21 PUSH1 0x4 MSTORE PUSH1 0x24 PUSH1 0x0 REVERT JUMPDEST DUP3 PUSH1 0x2 DUP2 GT ISZERO PUSH2 0x98A JUMPI PUSH32 0x4E487B7100000000000000000000000000000000000000000000000000000000 PUSH1 0x0 MSTORE PUSH1 0x21 PUSH1 0x4 MSTORE PUSH1 0x24 PUSH1 0x0 REVERT JUMPDEST EQ ISZERO PUSH2 0x9CD JUMPI PUSH1 0x40 MLOAD DUP1 PUSH1 0x40 ADD PUSH1 0x40 MSTORE DUP1 PUSH1 0x9 DUP2 MSTORE PUSH1 0x20 ADD PUSH32 0x496E5472616E7369740000000000000000000000000000000000000000000000 DUP2 MSTORE POP SWAP1 POP PUSH2 0xABB JUMP JUMPDEST PUSH1 0x2 DUP1 DUP2 GT ISZERO PUSH2 0xA06 JUMPI PUSH32 0x4E487B7100000000000000000000000000000000000000000000000000000000 PUSH1 0x0 MSTORE PUSH1 0x21 PUSH1 0x4 MSTORE PUSH1 0x24 PUSH1 0x0 REVERT JUMPDEST DUP3 PUSH1 0x2 DUP2 GT ISZERO PUSH2 0xA3F JUMPI PUSH32 0x4E487B7100000000000000000000000000000000000000000000000000000000 PUSH1 0x0 MSTORE PUSH1 0x21 PUSH1 0x4 MSTORE PUSH1 0x24 PUSH1 0x0 REVERT JUMPDEST EQ ISZERO PUSH2 0xA82 JUMPI PUSH1 0x40 MLOAD DUP1 PUSH1 0x40 ADD PUSH1 0x40 MSTORE DUP1 PUSH1 0x9 DUP2 MSTORE PUSH1 0x20 ADD PUSH32 0x44656C6976657265640000000000000000000000000000000000000000000000 DUP2 MSTORE POP SWAP1 POP PUSH2 0xABB JUMP JUMPDEST PUSH1 0x40 MLOAD DUP1 PUSH1 0x40 ADD PUSH1 0x40 MSTORE DUP1 PUSH1 0x7 DUP2 MSTORE PUSH1 0x20 ADD PUSH32 0x556E6B6E6F776E00000000000000000000000000000000000000000000000000 DUP2 MSTORE POP SWAP1 POP JUMPDEST SWAP2 SWAP1 POP JUMP JUMPDEST DUP3 DUP1 SLOAD PUSH2 0xACC SWAP1 PUSH2 0x1007 JUMP JUMPDEST SWAP1 PUSH1 0x0 MSTORE PUSH1 0x20 PUSH1 0x0 KECCAK256 SWAP1 PUSH1 0x1F ADD PUSH1 0x20 SWAP1 DIV DUP2 ADD SWAP3 DUP3 PUSH2 0xAEE JUMPI PUSH1 0x0 DUP6 SSTORE PUSH2 0xB35 JUMP JUMPDEST DUP3 PUSH1 0x1F LT PUSH2 0xB07 JUMPI DUP1 MLOAD PUSH1 0xFF NOT AND DUP4 DUP1 ADD OR DUP6 SSTORE PUSH2 0xB35 JUMP JUMPDEST DUP3 DUP1 ADD PUSH1 0x1 ADD DUP6 SSTORE DUP3 ISZERO PUSH2 0xB35 JUMPI SWAP2 DUP3 ADD JUMPDEST DUP3 DUP2 GT ISZERO PUSH2 0xB34 JUMPI DUP3 MLOAD DUP3 SSTORE SWAP2 PUSH1 0x20 ADD SWAP2 SWAP1 PUSH1 0x1 ADD SWAP1 PUSH2 0xB19 JUMP JUMPDEST JUMPDEST POP SWAP1 POP PUSH2 0xB42 SWAP2 SWAP1 PUSH2 0xB46 JUMP JUMPDEST POP SWAP1 JUMP JUMPDEST JUMPDEST DUP1 DUP3 GT ISZERO PUSH2 0xB5F JUMPI PUSH1 0x0 DUP2 PUSH1 0x0 SWAP1 SSTORE POP PUSH1 0x1 ADD PUSH2 0xB47 JUMP JUMPDEST POP SWAP1 JUMP JUMPDEST PUSH1 0x0 PUSH2 0xB76 PUSH2 0xB71 DUP5 PUSH2 0xF17 JUMP JUMPDEST PUSH2 0xEF2 JUMP JUMPDEST SWAP1 POP DUP3 DUP2 MSTORE PUSH1 0x20 DUP2 ADD DUP5 DUP5 DUP5 ADD GT ISZERO PUSH2 0xB8E JUMPI PUSH1 0x0 DUP1 REVERT JUMPDEST PUSH2 0xB99 DUP5 DUP3 DUP6 PUSH2 0xFC5 JUMP JUMPDEST POP SWAP4 SWAP3 POP POP POP JUMP JUMPDEST PUSH1 0x0 DUP2 CALLDATALOAD SWAP1 POP PUSH2 0xBB0 DUP2 PUSH2 0x1232 JUMP JUMPDEST SWAP3 SWAP2 POP POP JUMP JUMPDEST PUSH1 0x0 DUP2 CALLDATALOAD SWAP1 POP PUSH2 0xBC5 DUP2 PUSH2 0x1249 JUMP JUMPDEST SWAP3 SWAP2 POP POP JUMP JUMPDEST PUSH1 0x0 DUP3 PUSH1 0x1F DUP4 ADD SLT PUSH2 0xBDC JUMPI PUSH1 0x0 DUP1 REVERT JUMPDEST DUP2 CALLDATALOAD PUSH2 0xBEC DUP5 DUP3 PUSH1 0x20 DUP7 ADD PUSH2 0xB63 JUMP JUMPDEST SWAP2 POP POP SWAP3 SWAP2 POP POP JUMP JUMPDEST PUSH1 0x0 DUP2 CALLDATALOAD SWAP1 POP PUSH2 0xC04 DUP2 PUSH2 0x1259 JUMP JUMPDEST SWAP3 SWAP2 POP POP JUMP JUMPDEST PUSH1 0x0 PUSH1 0x20 DUP3 DUP5 SUB SLT ISZERO PUSH2 0xC1C JUMPI PUSH1 0x0 DUP1 REVERT JUMPDEST PUSH1 0x0 DUP3 ADD CALLDATALOAD PUSH8 0xFFFFFFFFFFFFFFFF DUP2 GT ISZERO PUSH2 0xC36 JUMPI PUSH1 0x0 DUP1 REVERT JUMPDEST PUSH2 0xC42 DUP5 DUP3 DUP6 ADD PUSH2 0xBCB JUMP JUMPDEST SWAP2 POP POP SWAP3 SWAP2 POP POP JUMP JUMPDEST PUSH1 0x0 PUSH1 0x20 DUP3 DUP5 SUB SLT ISZERO PUSH2 0xC5D JUMPI PUSH1 0x0 DUP1 REVERT JUMPDEST PUSH1 0x0 PUSH2 0xC6B DUP5 DUP3 DUP6 ADD PUSH2 0xBF5 JUMP JUMPDEST SWAP2 POP POP SWAP3 SWAP2 POP POP JUMP JUMPDEST PUSH1 0x0 DUP1 PUSH1 0x40 DUP4 DUP6 SUB SLT ISZERO PUSH2 0xC87 JUMPI PUSH1 0x0 DUP1 REVERT JUMPDEST PUSH1 0x0 PUSH2 0xC95 DUP6 DUP3 DUP7 ADD PUSH2 0xBF5 JUMP JUMPDEST SWAP3 POP POP PUSH1 0x20 PUSH2 0xCA6 DUP6 DUP3 DUP7 ADD PUSH2 0xBA1 JUMP JUMPDEST SWAP2 POP POP SWAP3 POP SWAP3 SWAP1 POP JUMP JUMPDEST PUSH1 0x0 DUP1 PUSH1 0x40 DUP4 DUP6 SUB SLT ISZERO PUSH2 0xCC3 JUMPI PUSH1 0x0 DUP1 REVERT JUMPDEST PUSH1 0x0 PUSH2 0xCD1 DUP6 DUP3 DUP7 ADD PUSH2 0xBF5 JUMP JUMPDEST SWAP3 POP POP PUSH1 0x20 PUSH2 0xCE2 DUP6 DUP3 DUP7 ADD PUSH2 0xBB6 JUMP JUMPDEST SWAP2 POP POP SWAP3 POP SWAP3 SWAP1 POP JUMP JUMPDEST PUSH2 0xCF5 DUP2 PUSH2 0xF64 JUMP JUMPDEST DUP3 MSTORE POP POP JUMP JUMPDEST PUSH2 0xD04 DUP2 PUSH2 0xFB3 JUMP JUMPDEST DUP3 MSTORE POP POP JUMP JUMPDEST PUSH1 0x0 PUSH2 0xD15 DUP3 PUSH2 0xF48 JUMP JUMPDEST PUSH2 0xD1F DUP2 DUP6 PUSH2 0xF53 JUMP JUMPDEST SWAP4 POP PUSH2 0xD2F DUP2 DUP6 PUSH1 0x20 DUP7 ADD PUSH2 0xFD4 JUMP JUMPDEST PUSH2 0xD38 DUP2 PUSH2 0x116F JUMP JUMPDEST DUP5 ADD SWAP2 POP POP SWAP3 SWAP2 POP POP JUMP JUMPDEST PUSH1 0x0 PUSH2 0xD50 PUSH1 0x34 DUP4 PUSH2 0xF53 JUMP JUMPDEST SWAP2 POP PUSH2 0xD5B DUP3 PUSH2 0x1180 JUMP JUMPDEST PUSH1 0x40 DUP3 ADD SWAP1 POP SWAP2 SWAP1 POP JUMP JUMPDEST PUSH1 0x0 PUSH2 0xD73 PUSH1 0x2E DUP4 PUSH2 0xF53 JUMP JUMPDEST SWAP2 POP PUSH2 0xD7E DUP3 PUSH2 0x11CF JUMP JUMPDEST PUSH1 0x40 DUP3 ADD SWAP1 POP SWAP2 SWAP1 POP JUMP JUMPDEST PUSH2 0xD92 DUP2 PUSH2 0xFA9 JUMP JUMPDEST DUP3 MSTORE POP POP JUMP JUMPDEST PUSH1 0x0 PUSH1 0x20 DUP3 ADD SWAP1 POP DUP2 DUP2 SUB PUSH1 0x0 DUP4 ADD MSTORE PUSH2 0xDB1 DUP2 PUSH2 0xD43 JUMP JUMPDEST SWAP1 POP SWAP2 SWAP1 POP JUMP JUMPDEST PUSH1 0x0 PUSH1 0x20 DUP3 ADD SWAP1 POP DUP2 DUP2 SUB PUSH1 0x0 DUP4 ADD MSTORE PUSH2 0xDD1 DUP2 PUSH2 0xD66 JUMP JUMPDEST SWAP1 POP SWAP2 SWAP1 POP JUMP JUMPDEST PUSH1 0x0 PUSH1 0x20 DUP3 ADD SWAP1 POP PUSH2 0xDED PUSH1 0x0 DUP4 ADD DUP5 PUSH2 0xD89 JUMP JUMPDEST SWAP3 SWAP2 POP POP JUMP JUMPDEST PUSH1 0x0 PUSH1 0x60 DUP3 ADD SWAP1 POP PUSH2 0xE08 PUSH1 0x0 DUP4 ADD DUP7 PUSH2 0xD89 JUMP JUMPDEST PUSH2 0xE15 PUSH1 0x20 DUP4 ADD DUP6 PUSH2 0xCEC JUMP JUMPDEST PUSH2 0xE22 PUSH1 0x40 DUP4 ADD DUP5 PUSH2 0xCEC JUMP JUMPDEST SWAP5 SWAP4 POP POP POP POP JUMP JUMPDEST PUSH1 0x0 PUSH1 0x40 DUP3 ADD SWAP1 POP PUSH2 0xE3F PUSH1 0x0 DUP4 ADD DUP6 PUSH2 0xD89 JUMP JUMPDEST PUSH2 0xE4C PUSH1 0x20 DUP4 ADD DUP5 PUSH2 0xCFB JUMP JUMPDEST SWAP4 SWAP3 POP POP POP JUMP JUMPDEST PUSH1 0x0 PUSH1 0x80 DUP3 ADD SWAP1 POP PUSH2 0xE68 PUSH1 0x0 DUP4 ADD DUP8 PUSH2 0xD89 JUMP JUMPDEST DUP2 DUP2 SUB PUSH1 0x20 DUP4 ADD MSTORE PUSH2 0xE7A DUP2 DUP7 PUSH2 0xD0A JUMP JUMPDEST SWAP1 POP PUSH2 0xE89 PUSH1 0x40 DUP4 ADD DUP6 PUSH2 0xCEC JUMP JUMPDEST PUSH2 0xE96 PUSH1 0x60 DUP4 ADD DUP5 PUSH2 0xCFB JUMP JUMPDEST SWAP6 SWAP5 POP POP POP POP POP JUMP JUMPDEST PUSH1 0x0 PUSH1 0x80 DUP3 ADD SWAP1 POP PUSH2 0xEB4 PUSH1 0x0 DUP4 ADD DUP8 PUSH2 0xD89 JUMP JUMPDEST DUP2 DUP2 SUB PUSH1 0x20 DUP4 ADD MSTORE PUSH2 0xEC6 DUP2 DUP7 PUSH2 0xD0A JUMP JUMPDEST SWAP1 POP PUSH2 0xED5 PUSH1 0x40 DUP4 ADD DUP6 PUSH2 0xCEC JUMP JUMPDEST DUP2 DUP2 SUB PUSH1 0x60 DUP4 ADD MSTORE PUSH2 0xEE7 DUP2 DUP5 PUSH2 0xD0A JUMP JUMPDEST SWAP1 POP SWAP6 SWAP5 POP POP POP POP POP JUMP JUMPDEST PUSH1 0x0 PUSH2 0xEFC PUSH2 0xF0D JUMP JUMPDEST SWAP1 POP PUSH2 0xF08 DUP3 DUP3 PUSH2 0x1039 JUMP JUMPDEST SWAP2 SWAP1 POP JUMP JUMPDEST PUSH1 0x0 PUSH1 0x40 MLOAD SWAP1 POP SWAP1 JUMP JUMPDEST PUSH1 0x0 PUSH8 0xFFFFFFFFFFFFFFFF DUP3 GT ISZERO PUSH2 0xF32 JUMPI PUSH2 0xF31 PUSH2 0x1140 JUMP JUMPDEST JUMPDEST PUSH2 0xF3B DUP3 PUSH2 0x116F JUMP JUMPDEST SWAP1 POP PUSH1 0x20 DUP2 ADD SWAP1 POP SWAP2 SWAP1 POP JUMP JUMPDEST PUSH1 0x0 DUP2 MLOAD SWAP1 POP SWAP2 SWAP1 POP JUMP JUMPDEST PUSH1 0x0 DUP3 DUP3 MSTORE PUSH1 0x20 DUP3 ADD SWAP1 POP SWAP3 SWAP2 POP POP JUMP JUMPDEST PUSH1 0x0 PUSH2 0xF6F DUP3 PUSH2 0xF89 JUMP JUMPDEST SWAP1 POP SWAP2 SWAP1 POP JUMP JUMPDEST PUSH1 0x0 DUP2 SWAP1 POP PUSH2 0xF84 DUP3 PUSH2 0x121E JUMP JUMPDEST SWAP2 SWAP1 POP JUMP JUMPDEST PUSH1 0x0 PUSH20 0xFFFFFFFFFFFFFFFFFFFFFFFFFFFFFFFFFFFFFFFF DUP3 AND SWAP1 POP SWAP2 SWAP1 POP JUMP JUMPDEST PUSH1 0x0 DUP2 SWAP1 POP SWAP2 SWAP1 POP JUMP JUMPDEST PUSH1 0x0 PUSH2 0xFBE DUP3 PUSH2 0xF76 JUMP JUMPDEST SWAP1 POP SWAP2 SWAP1 POP JUMP JUMPDEST DUP3 DUP2 DUP4 CALLDATACOPY PUSH1 0x0 DUP4 DUP4 ADD MSTORE POP POP POP JUMP JUMPDEST PUSH1 0x0 JUMPDEST DUP4 DUP2 LT ISZERO PUSH2 0xFF2 JUMPI DUP1 DUP3 ADD MLOAD DUP2 DUP5 ADD MSTORE PUSH1 0x20 DUP2 ADD SWAP1 POP PUSH2 0xFD7 JUMP JUMPDEST DUP4 DUP2 GT ISZERO PUSH2 0x1001 JUMPI PUSH1 0x0 DUP5 DUP5 ADD MSTORE JUMPDEST POP POP POP POP JUMP JUMPDEST PUSH1 0x0 PUSH1 0x2 DUP3 DIV SWAP1 POP PUSH1 0x1 DUP3 AND DUP1 PUSH2 0x101F JUMPI PUSH1 0x7F DUP3 AND SWAP2 POP JUMPDEST PUSH1 0x20 DUP3 LT DUP2 EQ ISZERO PUSH2 0x1033 JUMPI PUSH2 0x1032 PUSH2 0x1111 JUMP JUMPDEST JUMPDEST POP SWAP2 SWAP1 POP JUMP JUMPDEST PUSH2 0x1042 DUP3 PUSH2 0x116F JUMP JUMPDEST DUP2 ADD DUP2 DUP2 LT PUSH8 0xFFFFFFFFFFFFFFFF DUP3 GT OR ISZERO PUSH2 0x1061 JUMPI PUSH2 0x1060 PUSH2 0x1140 JUMP JUMPDEST JUMPDEST DUP1 PUSH1 0x40 MSTORE POP POP POP JUMP JUMPDEST PUSH1 0x0 PUSH2 0x1075 DUP3 PUSH2 0xFA9 JUMP JUMPDEST SWAP2 POP PUSH32 0xFFFFFFFFFFFFFFFFFFFFFFFFFFFFFFFFFFFFFFFFFFFFFFFFFFFFFFFFFFFFFFFF DUP3 EQ ISZERO PUSH2 0x10A8 JUMPI PUSH2 0x10A7 PUSH2 0x10B3 JUMP JUMPDEST JUMPDEST PUSH1 0x1 DUP3 ADD SWAP1 POP SWAP2 SWAP1 POP JUMP JUMPDEST PUSH32 0x4E487B7100000000000000000000000000000000000000000000000000000000 PUSH1 0x0 MSTORE PUSH1 0x11 PUSH1 0x4 MSTORE PUSH1 0x24 PUSH1 0x0 REVERT JUMPDEST PUSH32 0x4E487B7100000000000000000000000000000000000000000000000000000000 PUSH1 0x0 MSTORE PUSH1 0x21 PUSH1 0x4 MSTORE PUSH1 0x24 PUSH1 0x0 REVERT JUMPDEST PUSH32 0x4E487B7100000000000000000000000000000000000000000000000000000000 PUSH1 0x0 MSTORE PUSH1 0x22 PUSH1 0x4 MSTORE PUSH1 0x24 PUSH1 0x0 REVERT JUMPDEST PUSH32 0x4E487B7100000000000000000000000000000000000000000000000000000000 PUSH1 0x0 MSTORE PUSH1 0x41 PUSH1 0x4 MSTORE PUSH1 0x24 PUSH1 0x0 REVERT JUMPDEST PUSH1 0x0 PUSH1 0x1F NOT PUSH1 0x1F DUP4 ADD AND SWAP1 POP SWAP2 SWAP1 POP JUMP JUMPDEST PUSH32 0x4170656E6173206F2070726F70726965746172696F20706F6465207472616E73 PUSH1 0x0 DUP3 ADD MSTORE PUSH32 0x666572697220612070726F70726965646164652E000000000000000000000000 PUSH1 0x20 DUP3 ADD MSTORE POP JUMP JUMPDEST PUSH32 0x4170656E6173206F2070726F70726965746172696F20706F646520617475616C PUSH1 0x0 DUP3 ADD MSTORE PUSH32 0x697A6172206F2065737461646F2E000000000000000000000000000000000000 PUSH1 0x20 DUP3 ADD MSTORE POP JUMP JUMPDEST PUSH1 0x3 DUP2 LT PUSH2 0x122F JUMPI PUSH2 0x122E PUSH2 0x10E2 JUMP JUMPDEST JUMPDEST POP JUMP JUMPDEST PUSH2 0x123B DUP2 PUSH2 0xF64 JUMP JUMPDEST DUP2 EQ PUSH2 0x1246 JUMPI PUSH1 0x0 DUP1 REVERT JUMPDEST POP JUMP JUMPDEST PUSH1 0x3 DUP2 LT PUSH2 0x1256 JUMPI PUSH1 0x0 DUP1 REVERT JUMPDEST POP JUMP JUMPDEST PUSH2 0x1262 DUP2 PUSH2 0xFA9 JUMP JUMPDEST DUP2 EQ PUSH2 0x126D JUMPI PUSH1 0x0 DUP1 REVERT JUMPDEST POP JUMP INVALID LOG2 PUSH5 0x6970667358 0x22 SLT KECCAK256 DUP2 NUMBER CHAINID SGT CREATE 0xC4 SUB DUP16 GASLIMIT PUSH2 0x21FF 0xC4 JUMPI 0x2E CALLER 0xC9 0xE3 SWAP11 LT 0xDB DUP3 0x26 PUSH11 0x663C90873A6D90EB64736F PUSH13 0x63430008020033000000000000 "
				},
				"gasEstimates": {
					"creation": {
						"codeDepositCost": "954800",
						"executionCost": "6000",
						"totalCost": "960800"
					},
					"external": {
						"createProduct(string)": "infinite",
						"getProduct(uint256)": "infinite",
						"productCount()": "1195",
						"products(uint256)": "infinite",
						"transferOwnership(uint256,address)": "infinite",
						"updateState(uint256,uint8)": "infinite"
					},
					"internal": {
						"stateToString(enum SupplyChain.State)": "infinite"
					}
				},
				"methodIdentifiers": {
					"createProduct(string)": "02ec06be",
					"getProduct(uint256)": "b9db15b4",
					"productCount()": "e0f6ef87",
					"products(uint256)": "7acc0b20",
					"transferOwnership(uint256,address)": "29507f73",
					"updateState(uint256,uint8)": "ffbafdfe"
				}
			},
			"storageLayout": {
				"storage": [
					{
						"astId": 18,
						"contract": "projeto_final/supply_chain.sol:SupplyChain",
						"label": "productCount",
						"offset": 0,
						"slot": "0",
						"type": "t_uint256"
					},
					{
						"astId": 23,
						"contract": "projeto_final/supply_chain.sol:SupplyChain",
						"label": "products",
						"offset": 0,
						"slot": "1",
						"type": "t_mapping(t_uint256,t_struct(Product)15_storage)"
					}
				],
				"types": {
					"t_address": {
						"encoding": "inplace",
						"label": "address",
						"numberOfBytes": "20"
					},
					"t_enum(State)5": {
						"encoding": "inplace",
						"label": "enum SupplyChain.State",
						"numberOfBytes": "1"
					},
					"t_mapping(t_uint256,t_struct(Product)15_storage)": {
						"encoding": "mapping",
						"key": "t_uint256",
						"label": "mapping(uint256 => struct SupplyChain.Product)",
						"numberOfBytes": "32",
						"value": "t_struct(Product)15_storage"
					},
					"t_string_storage": {
						"encoding": "bytes",
						"label": "string",
						"numberOfBytes": "32"
					},
					"t_struct(Product)15_storage": {
						"encoding": "inplace",
						"label": "struct SupplyChain.Product",
						"members": [
							{
								"astId": 7,
								"contract": "projeto_final/supply_chain.sol:SupplyChain",
								"label": "id",
								"offset": 0,
								"slot": "0",
								"type": "t_uint256"
							},
							{
								"astId": 9,
								"contract": "projeto_final/supply_chain.sol:SupplyChain",
								"label": "name",
								"offset": 0,
								"slot": "1",
								"type": "t_string_storage"
							},
							{
								"astId": 11,
								"contract": "projeto_final/supply_chain.sol:SupplyChain",
								"label": "owner",
								"offset": 0,
								"slot": "2",
								"type": "t_address"
							},
							{
								"astId": 14,
								"contract": "projeto_final/supply_chain.sol:SupplyChain",
								"label": "state",
								"offset": 20,
								"slot": "2",
								"type": "t_enum(State)5"
							}
						],
						"numberOfBytes": "96"
					},
					"t_uint256": {
						"encoding": "inplace",
						"label": "uint256",
						"numberOfBytes": "32"
					}
				}
			},
			"userdoc": {
				"kind": "user",
				"methods": {},
				"version": 1
			}
		}
	}
}